:10000000007C002071050000BD050000BD0500005A
:10001000BD050000BD050000BD050000BD050000D8
:10002000BD050000BD050000D8050000BD050000AD
:10003000BD050000BD050000BD050000BD050000B8
:1000400010B5054C237833B9044B13B10448AFF312
:1000500000800123237010BD140100200000000067
:10006000EC050000084B10B51BB108480849AFF378
:1000700000800848036803B910BD074B002BFBD074
:10008000BDE81040184700BF00000000EC0500006C
:100090001801002010010020000000000D4AD2F8D5
:1000A000883043F47003C2F888300B4B5A6D42F429
:1000B00000525A651A6C22F003021A64074A136848
:1000C00023F00103136052F8143C23F0805342F8EC
:1000D000143C704700ED00E000300E4074300E40DC
:1000E0000E4A0F4BD969C90702D58AB1013AF8E720
:1000F00072B101221861DA60DB6913F006000AD0E0
:100100005A0707D413F0020F0CBF0020FE2002E0B4
:10011000FD2000E0FF2040B2704700BF80969800AD
:1001200000000E4030B509B9002037E092B91C4BF1
:1001300050F822409C610824DC601A4B0132184CB4
:10014000E469E50702D543B3013BF8E72BB38A42E4
:10015000EDD1E9E7EFF3108572B60022104BDC69B0
:10016000240706D4DC6904F01904102C08BFDC60F5
:10017000F4E750F822409C61013210248A42DC608E
:10018000ECD105B962B6074B054AD269D20702D550
:100190001BB1013BF8E7002BC6D1FD2040B230BDBA
:1001A00000000E40809698002DE9F0470E461F494A
:1001B0001F468B6843F0010381468B604FEA92082B
:1001C000B2460025454519D209EB85042046FFF7C4
:1001D00087FF38BBC4F30A04C4F50064A408C5EB68
:1001E00008039C4228BF1C46504621463A46FFF76A
:1001F00099FF20B925440AEB840AE3E70020D9F8E7
:10020000002033689A4208D04846FFF769FF20B9BA
:10021000304601213A46FFF785FF044A936823F0F0
:100220000103936040B2BDE8F08700BF00000E40BC
:10023000194B9A6842F001029A6001221861DA6053
:10024000DA69510705D59A6822F001029A60FF2009
:100250001FE0DA69920705D59A6822F001029A60D8
:10026000FE2016E00222DA600C4A0B4BD86910F02F
:100270000100194602D012B1013AF6E72AB98B689B
:1002800023F001038B60FD2003E09A6822F0010255
:100290009A6040B2704700BF00000E408096980000
:1002A0000023FFF781BF000008B5064B1A68064B14
:1002B0001A6000F063F80028FBD040F2022000F042
:1002C00085F800BF040100200001002008B500F0FF
:1002D0009DF80E4B5B68B3F5803F09D040F20923CF
:1002E000984202D0B0F5007F02D100F013F858B95F
:1002F0004FF40063064A93601A6882F3088882F319
:1003000009885B689847FEE708BD00BF00500E40B3
:1003100000ED00E0282370B51B681869DE68846A68
:10032000B44201D2002070BD06F560539C42F9D260
:100330000444A41B0F4B22689A42F3D1E1684FF0AA
:10034000FF3200F007F90C4B98420546EAD140F61F
:100350002803A1681B689A68914209D83046D96879
:100360004FF0FF3200F0F6F8401B18BF012070BDBF
:10037000012070BD07B0CD5EE320BBDEF8B52823B9
:100380001B681F69DC68BB6A3B441D1B2646EA6884
:10039000A3189E4205D2304600F081F806F50066AB
:1003A000F5E73946204600F088F840F62803204655
:1003B0001B684FF0FF32D96800F0CCF8024BC31A2B
:1003C00058425841F8BD00BFE320BBDE4FF0005358
:1003D0004FF20F025A800A4A1880136823F4E06330
:1003E00043F480631360BFF34F8F0649064BCA681E
:1003F00002F4E0621343CB60BFF34F8F00BFFDE711
:1004000000500E4000ED00E00400FA054FF00053EC
:100410004FF20F015A888A4201D1188870473AB9C1
:100420001B88012B40F2022018BF4FF40070704768
:100430004FF4007070470000044B41F671321A64AB
:100440009A6822F001029A60704700BF00000E40D7
:10045000034B9A6822F001029A6000221A647047E6
:1004600000000E4013B5830745BF09046FEA114130
:100470006FEA01416FEA014158BF6FEA114120F074
:1004800003040191FFF7D8FF01A904222046FFF7DA
:1004900007FF0446FFF7DCFF204602B010BD10B591
:1004A0000446FFF7C9FF2046FFF7C2FE0446FFF7E8
:1004B000CFFFB4FA84F0400910BD40EA02032DE9F1
:1004C000F0411446DA0705460E4602D50020BDE885
:1004D000F08114B90120BDE8F081830708D50988AF
:1004E000FFF7C0FF0028F1D1023CF3D002350236FD
:1004F00024F00307FFF7A0FF284631463A46FFF7EE
:10050000CFFE8046FFF7A4FFB8F1000FDED1BC425A
:10051000E0D07819F15BFFF7A5FFB0FA80F0400951
:10052000BDE8F081484010B5C0B20C0A082310F0B5
:10053000010F4FEA500218BF054803F1FF3314BF03
:100540005040104613F0FF03F1D1604010BD00BFD2
:100550002083B8ED38B504464518AC4206D01146A4
:1005600014F8010BFFF7DEFF0246F6E7104638BD30
:100570000B4880470B4880470B490C4A0C4B9A426A
:10058000BEBF51F8040B42F8040BF8E709490A4AC8
:1005900000209142BCBF41F8040BFAE7FFF784FE4C
:1005A0009D000000CD020000F005000000010020C9
:1005B000140100201401002030010020FEE700BFDC
:1005C000F8B500BFF8BC08BC9E467047F8B500BF40
:1005D000F8BC08BC9E467047AD1007B00100000093
:1005E000000004010008000000800000000000007E
:1005F000C0EA2101C0EA21016500000041000000BD
:0406000000000000F6
:10080000007C0020E5080000E10800003509000038
:10081000E1080000E1080000E1080000E108000034
:10082000E1080000E1080000AC310000E108000030
:10083000E1080000E1080000E1080000E108000014
:1008400010B5054C237833B9044B13B10448AFF30A
:1008500000800123237010BD14010020000000005F
:1008600070330000084B10B51BB108480849AFF3BE
:1008700000800848036803B910BD074B002BFBD06C
:10088000BDE81040184700BF0000000070330000B2
:100890001801002010010020000000000D4AD2F8CD
:1008A000883043F47003C2F888300B4B5A6D42F421
:1008B00000525A651A6C22F003021A64074A136840
:1008C00023F00103136052F8143C23F0805342F8E4
:1008D000143C704700ED00E000300E4074300E40D4
:1008E000FEE7000008B5FFF7D9FF00F08FF80A4ACD
:1008F0000A4B0B498B4204D252F8041F43F8041BE5
:10090000F7E7084B084A934203D2002243F8042B2E
:10091000F8E700F015F800BF703300000001002078
:1009200014010020140100203001002000F0D6BE88
:1009300000F029BF08B54FF4017001F0DDFE0000A2
:100940002A4B1A682A4B13B51A602A4BDC6C01A893
:10095000240E00F0A5FE8E2C15D82749274AD1F881
:10096000B00040F00403C1F8B0304FF050131360F2
:1009700013631366C2F89030C2F8C030C2F8F0308A
:10098000C1F8B00001E08F2C06D11B4AD36A23F0D6
:100990007F0343F02003D3629DF80530012B01BF94
:1009A000174A136843F004031360164B00221A60C1
:1009B000FFF7BCFF01F099FE01F0DEF910B940F23B
:1009C00001200DE0104B0193019B002B02DD019BE8
:1009D000013BF8E740F20543984203D140F203207F
:1009E00001F08AFE4FF40170FAE700BF0401002015
:1009F00000010020B081E00F00400E4000A0004048
:100A000064310E40B40AC64300350C0008B51F4BD4
:100A10005A68B2F5803F10D05B685B0532D501F0B3
:100A20008BFEA0F2022080B207282BD8012383403E
:100A300013F0C90F26D0002325E00023012244F241
:100A400004010968013105D14FF40270BDE8084086
:100A500001F044BE93B14FF4804001F0B3FD002893
:100A6000F2D00B4A4FF4804393601846016881F33B
:100A7000088881F309884068874602E0002AF0D19F
:100A800008BDFEE701231A46D9E700BF00500E401B
:100A900000ED00E001207047484010B5C0B20C0ADC
:100AA000082310F0010F4FEA500218BF054803F168
:100AB000FF3314BF5040104613F0FF03F1D16040E4
:100AC00010BD00BF2083B8ED38B504464518AC42D0
:100AD00006D0114614F8010BFFF7DEFF0246F6E7D9
:100AE000104638BDF8B504461D4616460F4600F0C0
:100AF000BAFE079A0699204600F0BBFE0023636207
:100B000084F838703268C4F839207268C4F83D201F
:100B1000C5F30743B26884F84530C5F30723C4F82A
:100B2000412084F8463084F84750F8BD30B585B090
:100B300000F12805019102921946009500F1240266
:100B400000F1380300F0B3FE05B030BDF0B50F463C
:100B5000A3B01646044638B331B32AB31448012172
:100B600000F05EFC4022002102A802F00AFB01F026
:100B70004BF9014602A800F013FB01F049F912AD50
:100B800001460AA800F00CFB2846394600F008FB95
:100B90001AA8314600F004FB00952146202202AB42
:100BA000044800F00FFB01E040F2016023B0F0BD0B
:100BB0000015080000000F4010B5044601F000F8D1
:100BC00020460021BDE8104001F000B801F06CB8EB
:100BD000014601F06DB81C2350F8042F0AB9043BFC
:100BE000FAD1002BCCBF00200120704730B58A68B5
:100BF0000D684C68CB6805600460026003600D6995
:100C00004C698A69CB69056004600260036030BD8D
:100C100030B50568046802680368CB600D604C60FD
:100C20008A600568046802680368CB610D614C61E5
:100C30008A6130BD2DE9F04104461D460E469046BE
:100C400000212022184602F09CFA01232B6000F0BC
:100C500025FC4146074604F58070FFF7C7FF314683
:100C600004F5827004F58476FFF7C0FF304629460C
:100C7000FFF7BCFF384600F015FC0D4B2365636998
:100C8000DB0108D40B4B23650B4B63650B4BA36552
:100C90000B4BE365F3E700F001FC294604463046C0
:100CA000FFF7B6FF2046BDE8F04100F0FBBB00BFF8
:100CB00039398401D02484FC1C82FED88B1C81A08D
:100CC000393801002DE9F04F8DB004460F46154626
:100CD000984600F0E3FB04F5827607F1400A81466E
:100CE00051463046FFF782FF04F5867318462946C1
:100CF0000393FFF77BFF04F58872104605F120018E
:100D00000292FFF773FF484600F0CCFB4249216591
:100D10004249616501254249A165E56500F0BEFBD8
:100D200004F5847907F1200B019039463046FFF72E
:100D30005DFF48465946FFF759FF029A5146104653
:100D4000FFF754FFDDF804C0604600F0ABFB354A06
:100D50002265354A6265A56500F0A0FB04F5807A3E
:100D6000019008F140015046FFF752FF04A94846A0
:100D7000FFF74EFF019A104600F094FB00F08EFB47
:100D8000039B019039461846FFF730FF019A104641
:100D900000F088FB254B2365254B63656FF42672B5
:100DA000A3F5FE231344A365E56500F077FB5946E0
:100DB00007463046FFF71AFF384600F073FB1D4B1D
:100DC00023651D4B6365A56500F068FB414607463A
:100DD0004846FFF71DFF384600F064FB00F05EFB5D
:100DE00004A907463046FFF701FF384600F05AFBDA
:100DF000124B2365124B6365A56500F04FFB08F1AC
:100E0000200104465046FFF703FF204600F04AFB4E
:100E10000DB0BDE8F08F00BF8AD11C81D91C83D1F1
:100E20001C81E11CD01482CB1481E11C8CE11C815B
:100E30001C84D91CE014D8141482E11C84D31482BD
:100E4000D11CE0142DE9F04FA5B004461D460092D8
:100E50008B462022002104A802F093F905F1200717
:100E60000123002120222846049305F1400802F0C6
:100E700088F900212022384602F083F9002120223F
:100E8000404602F07EF92046052100F00EFB0023CB
:100E90002360FF262363636306F01F0101238B4059
:100EA0007211009951F82220134201D1013EF3D171
:100EB00000F0F4FA04F58272394681461046029237
:100EC000FFF794FE484600F0EDFA7E4B23657E4B1B
:100ED00063657E4BA36500F0E1FA04F5807A14A9FE
:100EE00081465046FFF794FE484600F0DBFA00F0DA
:100EF000D5FA294681465046FFF778FE484600F06D
:100F0000D1FA734B2365734B63654FF48673A36506
:100F100000F0C4FA04F5867901900CA94846FFF761
:100F200077FE1CA95046FFF773FE019B184600F0A0
:100F3000B9FA00F0B3FA029A0190414610460392C2
:100F4000FFF754FE019B184600F0ACFA624B236594
:100F50000123636500F0A2FA04F584732946019029
:100F600018460293FFF742FEDDF804C0604600F029
:100F700099FA5A49216501F1D94101F5DE1101F5CE
:100F800095616165A1F58611A1F2BA410123A165C0
:100F9000E36500F083FA029B01901CA91846FFF755
:100FA00025FE0CA94846FFF721FEDDF804C0604687
:100FB00000F078FA4A4921654A4961654A49A165C4
:100FC00000F06CFA2946019004F58870FFF720FEC6
:100FD000DDF804C0604600F065FA00F05FFA039A9D
:100FE000019039461046FFF701FE029B4146184624
:100FF000FFF7FCFD14A94846FFF7F8FDDDF804C033
:10100000604600F04FFA394B2365394B636500F0B9
:1010100045FA414601905046FFF7FAFD39464846E9
:10102000FFF7F6FD019B184600F03CFA012106F09F
:101030001F0301FA03F37211009951F822201342A1
:1010400038D02B687BB92846FFF7C5FD58B12B6A0D
:101050004BB93846FFF7BFFD28B12B6C1BB9404692
:10106000FFF7B9FD30B9204629465A462B46FFF70F
:1010700029FE1FE05B462A460BF1200153F8040BC2
:1010800042F8040B8B42F9D13A4603F1200153F8A0
:10109000040B42F8040B8B42F9D10DF1100E4246BD
:1010A000734603CB51600CA98B4210609E4602F13F
:1010B0000802F5D116F1FF36BFF4FAAE25B0BDE84F
:1010C000F08F00BF8AD11C81821CC00C0C0C010067
:1010D000C00C0C83D91C83D88AD11C83DA0C8114F0
:1010E0008CE11CD01484E31482D11C01D81483D168
:1010F0001CC00C012DE9F041044690B00F46244E6F
:101100000521904600F0D1F9002323602363636337
:101110000FCE08AD0FC596E80F0085E80F0008AAAE
:101120006B4607F140012046FFF784FD00F0B6F959
:1011300004F586750646694604F58270FFF756FD8C
:1011400028463946FFF752FD07F1200104F5887063
:10115000FFF74CFD304600F0A5F90E4B23650E4B12
:1011600063650E4BA3650123E36500F097F908F171
:101170002001064604F58070FFF74AFD28464146E7
:10118000FFF746FD304600F08DF910B0BDE8F08164
:10119000EC3100008AD11C81D91C83D11C81E11C57
:1011A00038B5202204460D46002101F0EAFF631EF7
:1011B00005F120011F3411F8012D03F8012FA3427E
:1011C000F9D138BD2DE9F04FBDB0044600929A46E2
:1011D000469E0F46002900F00381002B00F000819D
:1011E000002E00F0FD80002A40F3FA800025056003
:1011F000056345634368DFF80C8243F010034360E6
:101200000C2100F052F9636823F4406343F4006357
:101210006360636823F4407343F400736360B8E869
:101220000F000DF1B00EAEE80F0098E80F008EE849
:101230000F0000F033F904F58479834631464846BF
:1012400004F58678FFF7D2FC2CA94046FFF7CEFCC8
:10125000584600F027F9654A2265012363656169F4
:10126000C90102D440F20260BCE00393029200F094
:1012700015F906F1200B019059464846FFF7B6FCD8
:1012800040462CA9FFF7B2FC019800F00BF9039B34
:10129000029A226563656369DB01E3D5294634A8B8
:1012A000202201F06EFF009D202DA8BF2025013DCA
:1012B000013F25F003033CAA4033134405F003012A
:1012C00017F8012FC90002FA01F153F8602C15F14B
:1012D000FF3542EA010243F8602CEAD200F0DEF862
:1012E00034A905464846FFF781FC284600F0DAF8A5
:1012F0003F4B236500F0D2F804F58075074634A90A
:101300002846FFF785FC384600F0CCF82CAA04AB41
:1013100059462046FFF78EFC00F0C0F804F58877A8
:10132000834604A904F58270FFF760FC384634A9AF
:10133000FFF75CFC31464046FFF758FC584600F08A
:10134000B1F82C4B236503F1FA43A3F50063636501
:1013500000F0A4F834A983463846FFF759FC284624
:1013600004A9FFF755FC584600F09CF82046224996
:1013700034AA0CABFFF766FD24AB2046514604AA05
:10138000FFF760FD0CA90A462046FFF7B3FE24A92B
:101390000B4620460CAAFFF795FC24A90A462046D6
:1013A000FFF7A8FE00F07AF80C210546204600F071
:1013B0007CF8484624A9FFF719FC40463146FFF760
:1013C00015FC284600F06EF80C4B23650C4B63654A
:1013D000636913F0807F40F2046018BF002001E0D1
:1013E00040F201603DB0BDE8F08F00BF3035DA104B
:1013F00030D00C0130E11C842C3200003035DA147E
:10140000393801000C320000044BD3F84421D207D4
:1014100003D4D3F840211042FBD1704700400E4066
:10142000C0F30322013A70B503460E46092A26D8B6
:10143000DFE802F018082525050B0E251115002000
:101440000F4C11E000200F4C0EE001200E4C0BE081
:1014500010200E4C08E04FF480300D4C04E00020CA
:101460000C4C01E00C4C0020C3F3043508B1FFF72D
:10147000CBFF04F1047405EBC404A400266070BD26
:10148000B0400E40C0400E40E0400E40E8400E40EC
:10149000F0400E4050410E4000400E40EFF31080EF
:1014A00072B6704700B962B670470E2910B542682F
:1014B00010D822F01F0301228A4047F2E0041440B2
:1014C00024B940F61F74144024B101E043F0100326
:1014D0000B43436010BD00000E4A0F4BD969C9078A
:1014E00002D58AB1013AF8E772B101221861DA60D7
:1014F000DB6913F006000AD05A0707D413F0020F75
:101500000CBF0020FE2002E0FD2000E0FF2040B2E2
:10151000704700BF8096980000000E4030B509B9B2
:10152000002037E092B91C4B50F822409C610824FF
:10153000DC601A4B0132184CE469E50702D543B36D
:10154000013BF8E72BB38A42EDD1E9E7EFF31085D1
:1015500072B60022104BDC69240706D4DC6904F063
:101560001904102C08BFDC60F4E750F822409C619D
:10157000013210248A42DC60ECD105B962B6074B17
:10158000054AD269D20702D51BB1013BF8E7002B0F
:10159000C6D1FD2040B230BD00000E4080969800BC
:1015A0002DE9F0470E461F491F468B6843F00103A3
:1015B00081468B604FEA9208B2460025454519D214
:1015C00009EB85042046FFF787FF38BBC4F30A0404
:1015D000C4F50064A408C5EB08039C4228BF1C4660
:1015E000504621463A46FFF799FF20B925440AEBB9
:1015F000840AE3E70020D9F8002033689A4208D033
:101600004846FFF769FF20B9304601213A46FFF707
:1016100085FF044A936823F00103936040B2BDE85C
:10162000F08700BF00000E40194B9A6842F001029B
:101630009A6001221861DA60DA69510705D59A6863
:1016400022F001029A60FF201FE0DA69920705D5B7
:101650009A6822F001029A60FE2016E00222DA6007
:101660000C4A0B4BD86910F00100194602D012B198
:10167000013AF6E72AB98B6823F001038B60FD205D
:1016800003E09A6822F001029A6040B2704700BFFE
:1016900000000E40809698000023FFF781BF0000F5
:1016A0000B4A536903F00F011369C3F3811343EA33
:1016B00081038370136903F03F034370936903F060
:1016C000F001D369C3F303130B430370704700BFEA
:1016D000D0FF0FE0004870476C32000000207047D8
:1016E000024BD86900F00100704700BF00000E40B7
:1016F00008B503461044B0F5802F02D940F20240ED
:1017000008BD0846194601F031FD002008BD8318C8
:10171000B3F5802F10B502D940F2024010BD034648
:101720001C1A944206D253F8044B0134F8D040F20C
:10173000034010BD00F06FFE002840F2024018BFC9
:10174000002010BD38B5C1F30A030446C3B9C0F385
:101750000A03ABB90D18B5F5802F04D940F2024049
:1017600038BD0028FAD0204604F5006400F045FE9C
:10177000A542F6D1002840F2024018BF002038BD33
:1017800040F2044038BD0020704700F10473102A75
:1017900030B54FEA43131AD101221A600D684C6824
:1017A0008A68CB68C0F81051C0F81041C0F8102109
:1017B000C0F810310D694C698A69CB69C0F81051C5
:1017C000C0F81041C0F81021C0F8103130BD00221F
:1017D0001A600D684C688A68CB6845624462426250
:1017E000436230BD7FB58B07024613D00B466D4672
:1017F00001F11006186859682C4603C40833B34237
:101800002546F7D1009B1360019B1360029B136078
:10181000039B06E00D684C688868CB68156014600F
:101820001060136004B070BD30B5056804680268CC
:101830000368880785B010D0009501940393029245
:101840006C460B4604AD224603CAAA421860596092
:10185000144603F10803F6D103E00D604C608A6082
:10186000CB6005B030BD18B10021242201F089BC45
:10187000704770B50E461546044690B189B10021F7
:10188000242201F07EFC802D02D0B5F5807F0BD1A3
:101890002046314640F8045BEA0801F067FC00206E
:1018A00070BD6FF0210070BD6FF01F0070BD2DE99D
:1018B000F74F80460F469A4615460AB1166800E073
:1018C0001646B8F1000F00F0AE800D9B002B00F023
:1018D000AA800E9B002B00F0A680BAF1000F00F04A
:1018E000A2800C9B002B00F09E80D8F80030802B4B
:1018F00003D0B3F5807F40F099804FF00009B945DF
:1019000080F08D8076B10C9B995D0D9B13F80920BA
:101910000E9B4A40013603F8092006F00F0609F134
:101920000109ECE700F08AF84FF44042466002609B
:101930000446FFF7B3FDD8F80020802A0CBF082228
:101940001022834608F104012046FFF71EFF04F130
:101950008403184651460093FFF744FF5846FFF7AB
:10196000A1FDC9EB070222F00F0202EB090BD945DA
:1019700044D04821A1600521A16021698A07FCD4D7
:101980000321A160FFF78AFD0D9B019003EB090184
:1019900004F1A000FFF726FF0E9B04F1800003EB8B
:1019A0000901FFF741FFDDF804C06046FFF77AFD4B
:1019B00009F11009DBE79EB94823A3600523A36062
:1019C00023699B07FCD40323A360FFF767FD0C99F1
:1019D000814604F18000FFF727FF4846FFF762FDCC
:1019E0000C9B0E9A995D0D9B13F80B3001364B4002
:1019F00002F80B3006F00F060BF1010BBB45DAD1F4
:101A0000FFF74CFD514681460098FFF70DFF484611
:101A1000FFF748FD204600F01BF8B9466FE745B1D7
:101A20002E60002006E06FF0210003E06FF01F0041
:101A300000E0284603B0BDE8F08F0000024B0348E9
:101A400001221A60704700BF0416C84300000F400F
:101A5000054B984201BF03F16E7303F58B330433DA
:101A6000002208BF1A60704700000F408A68CB68E8
:101A700030B50D684C6805600460026003600D6954
:101A80004C698A69CB6905600460026003600D6A75
:101A90004C6A8A6ACB6A05600460026003600D6B61
:101AA0004C6B8A6BCB6B056004600260036030BDD9
:101AB0002DE9F04790B00546894690461F46FFF74E
:101AC000BDFF044627B1012F03D10423036000E0CA
:101AD000076000276760E764636823F4406363601E
:101AE00027636763FFF7DAFC6A68A968EB682E680A
:101AF000C4F80461C4F80421C4F80411C4F8043122
:101B0000EB696A69A9692E69C4F80461C4F8042103
:101B1000C4F80411C4F80431FFF7C4FC264B236554
:101B200047454E4626D016F0030F06F1400912D065
:101B30006A4630687168134603C308364E451A4634
:101B4000F7D1FFF7ABFC6946064604F5D270FFF704
:101B50008DFF304608E0FFF7A1FC3146824604F5D0
:101B6000D270FFF783FF5046FFF79CFC134B2365B1
:101B70000137D5E7FFF792FCD4F80061D4F80011E3
:101B8000D4F80021D4F80031EB602E606960AA60BF
:101B9000D4F80061D4F80011D4F80021D4F8003151
:101BA000EB616961AA612E61FFF77CFC2046FFF7BB
:101BB0004FFF10B0BDE8F087888AC801070D81018A
:101BC00018B100216C2201F0DCBA7047002330B557
:101BD0000362436281B1104C012380F8683004F144
:101BE00020050346224603CAAA42186059601446DB
:101BF00003F10803F6D130BD084C80F868100346A5
:101C000004F12005224603CAAA421860596014460E
:101C100003F10803F6D130BDA0320000003300000C
:101C200001221346FFF744BF036A2DE9F04103F098
:101C30003F051344934203623CBF436A01330646A7
:101C40000F46144638BF436295B1C5F1400842457E
:101C50000ED305F128004246304401F087FA3046A1
:101C600006F12801FFF7DCFF4744C8EB0404002518
:101C70003F2C0DD94FEA94183946424630464FEA78
:101C800088180123FFF714FF4744C8EB0404EFE76B
:101C900044B105F12800304439462246BDE8F04100
:101CA00001F064BABDE8F0810AB1FFF7BDBF70472B
:101CB00037B5026A0D46416A530F43EAC103044631
:101CC000180ED1008DF80000180C02F03F028DF8BC
:101CD00001008DF80330180A0B0E372A8DF80430F6
:101CE0004FEA114394BFC2F13802C2F178028DF875
:101CF00002008DF805308DF807100B0A20460F49B9
:101D00008DF80630FFF7D0FF204608226946FFF71E
:101D10008BFF94F868002A460028A2EB050314BF45
:101D20001C2120218B4206D29B0854F823301BBA79
:101D300042F8043BF0E703B030BD00BFC032000002
:101D40000020704700207047012070470120704735
:101D500040F628031B681869704700002823044ACE
:101D60001B68196891420CBF18690020704700BFBA
:101D7000AD1007B00020704700B5E1B04FF0FF3361
:101D800001A80121019300F0CDF9002838D1019874
:101D9000431C02D140F2054032E002A94FF4BC726C
:101DA00000F056F902A8002100F0A5F840F2012346
:101DB0009842F7D040F203239842EBD19DF80830C7
:101DC0009BB19DF80930002BE4D040F6280303991D
:101DD0001B689B68994208D95C9800F06BF9002851
:101DE000D8D040F2092000F087FC9DF80930002B84
:101DF000D0D05C98059900F07DF90028CAD0002069
:101E000061B05DF804FB0000004870474A43E00FF2
:101E1000004870476A43E00F004870478642E00F71
:101E200089B10A4B5A68904203D300230B604B6080
:101E300009E0013053F830200A6003EBC0030020B2
:101E40005B684B60704740F2014070479032000081
:101E500001221A707047000010B5044660B14FF4BB
:101E60008032002380E80C00044B1A785B68027211
:101E7000C360FFF72FFC206110BD00BF903200004F
:101E800070B50D4C6568A8420FD2013004EBC00656
:101E9000CD187668B5420BD854F83000BDE87040D4
:101EA000084411461A46FFF723BC40F2014070BDBA
:101EB00040F2024070BD00BF9032000030B50446D1
:101EC000A3B00D4602AAD4F87011D0F8680180239F
:101ED000FFF7D6FF009504F12400214602AA8023D3
:101EE00000F0B4FDD4F87031C4F874018033C4F844
:101EF000703123B030BD1FB50023009301930393CD
:101F0000D0F87431029104469BB9D0F87021D0F812
:101F10006C319A420DD26946FFF7D0FFD4F87401B4
:101F200098B140F2012341F20702904208BF1846DF
:101F300010E0A37863B1E07840F2032240F202237C
:101F400000280CBF1846104604E040F2012001E0D2
:101F500040F2022004B010BD70B586B006AB0D464D
:101F6000002103F8111D04461646029311601F4B11
:101F7000039328461C220493059301F002F99DF86F
:101F8000070088B994F86A30112B0DD0D4F8743159
:101F900053B9D4F87021D4F86C319A4204D2204657
:101FA00002A9FFF78BFFEAE723780BB16368336080
:101FB0006378ABB104F1080304F1240253F8041B65
:101FC00045F8041B9342F9D140B963785BB9237893
:101FD000002B40F2064018BF002004E0002002E081
:101FE0000028F4D0184606B070BD00BF511E000096
:101FF00070B50D4C6568A8420FD2013004EBC006E5
:10200000CD187668B5420BD854F83000BDE8704062
:10201000084411461A46FFF77ABB40F2014070BDF2
:1020200040F2024070BD00BF90320000074B5A687A
:10203000904207D2013003EBC00253F830005168E0
:10204000FFF780BB40F20140704700BF90320000B4
:1020500037B505460C460846114600F009FB48B95D
:1020600028466946FFF7DCFE20B9019BC4F8685199
:10207000C4F86C3103B030BD38B504460D46243089
:1020800004F1B40104F1FC02202300F09FFCD4F819
:10209000743153B9D4F87021D4F86C319A4204D217
:1020A00020462946FFF70AFFF1E7A07800B1E07863
:1020B00038BD000040F6280300B51B689B689942B4
:1020C000E3B001D800200FE004A94FF4BC72FFF781
:1020D000BFFF0028F6D1009001900290044B0393BB
:1020E00004A86946FFF7C8FF63B05DF804FB00BFB2
:1020F0005925000000B5E3B004A94FF4BC72FFF706
:10210000A7FF48B90090064B02900390694604A8C7
:102110000193FFF7B1FF00E0002063B05DF804FB1E
:10212000012500002DE9F0419AB0502204460D46E9
:1021300006A8002101F025F80021142201A801F0D1
:1021400020F801A8FFF788FE049B012B0CD8002380
:1021500023600123AB4205D24FF0FF3244F8232025
:102160000133F7E700206FE0AB426BD3FFF702FECD
:10217000059B06A90C220646DF68FFF7B9FA00287E
:1021800062D1DFF8D080069B434510D106A9089A9A
:102190003046FFF7ADFA06A808994FF0FF32FEF778
:1021A00093FC2B4B984233D004EB850529E0374450
:1021B000384606A90C22FFF79BFA002844D1069B5B
:1021C00043450BD004EB8505AC4204D04FF0FF3300
:1021D00044F8043BF8E740F2055035E006A93846DC
:1021E000089AFFF785FA059B3046D968FFF7AAFAE7
:1021F00050BB304606A9089AFFF789FA0028C5D0D7
:1022000022E0AC42E7D04FF0FF3344F8043BF8E75C
:102210001AAA214652F8483D103B9B08AB4228BF02
:102220002B4604EB8300814204D052F8046F41F83E
:10223000046BF8E7AB4295D24FF0FF3244F823200D
:102240000133F7E740F204501AB0BDE8F08100BF57
:10225000E320BBDE39528FE1F0B550269BB00C462F
:1022600032460021054606A800F08BFF2E4B069350
:1022700000210123142201A80793089600F081FF92
:1022800001A8FFF7E9FD049BA34248D3012B07D81F
:102290002B680133012B40F2045098BF002040E02E
:1022A000FFF768FD059B102CDF68214628BF102131
:1022B0000646074408AB284605EB8102904204D04D
:1022C00050F8044B43F8044FF8E7102907D006AB49
:1022D00003EB81034FF0FF32DA600131F5E74C2167
:1022E00006A84FF0FF32FEF7EFFB059BC0431990A5
:1022F000D9683846FFF726FA98B9384606A9502219
:10230000FFF705FA68B9059B3046D968FFF71AFA56
:1023100038B9304606A95022FFF7F9F901E040F23A
:1023200004501BB0F0BD00BF39528FE170B596B0BC
:1023300000211422064601A800F023FF01A8FFF7A0
:102340008BFD049C012C02D840F2025020E006AD27
:1023500028462146FFF7E6FE20B140F20553984299
:1023600016D1002055F820305A1C09D116AB03EBCA
:102370008000214640F8406C2846FFF76DFF07E0DB
:10238000B34203D00130A042ECD1DDE740F203506C
:1023900016B070BD044B41F671321A649A6822F08F
:1023A00001029A60704700BF00000E40034B9A681C
:1023B00022F001029A6000221A64704700000E4069
:1023C00013B5830745BF09046FEA11416FEA014164
:1023D0006FEA014158BF6FEA114120F003040191F7
:1023E000FFF7D8FF01A904222046FFF755F904465C
:1023F000FFF7DCFF204602B010BD10B50446FFF722
:10240000C9FF2046FFF710F90446FFF7CFFFB4FAE3
:1024100084F0400910BD40EA02032DE9F041144662
:10242000DA0705460E4602D50020BDE8F08114B952
:102430000120BDE8F081830708D50988FFF7C0FFB8
:102440000028F1D1023CF3D00235023624F0030714
:10245000FFF7A0FF284631463A46FFF71DF98046B0
:10246000FFF7A4FFB8F1000FDED1BC42E0D078192D
:10247000F15BFFF7A5FFB0FA80F04009BDE8F081FD
:10248000F0B51E4B446BA1B001AA064603F1100E35
:10249000174618685968154603C5083373452A4618
:1024A000F7D120463946102200F050FE18B9636972
:1024B000012B21D1A46940F628031B681B69A342A4
:1024C00019D8B44217D3B4F5802F14D805A8FEF755
:1024D00073FB3146A21B05A8FEF778FB05A8FEF7A3
:1024E00077FB05A8214604F12002FEF72FFBB0FA86
:1024F00080F0400900E0002021B0F0BD6033000012
:1025000040F628032DE9F0411B6816461A698242FD
:10251000054688461DD85B698719BB4219D3C0F3AD
:102520000A030BB9FFF769FF05F5006424F4FF64A3
:1025300024F00704BC4205D22046FFF75EFF04F5F5
:102540000064F7E7284641463246BDE8F041FFF710
:1025500062BFBDE8F081000028232DE9F0411B682F
:10256000884616461968164A914227D11D6940F6D9
:10257000280305441B685A69AF19BA421ED310B923
:102580001869FFF73AFFC5F30A0313B92846FFF7A6
:1025900034FF05F5006424F4FF6424F00704BC4212
:1025A00005D22046FFF729FF04F50064F7E7284627
:1025B00041463246BDE8F041FFF72DBFBDE8F0814E
:1025C000AD1007B0F0B5284B85B004466A4603F15C
:1025D00010076E4618685968154603C50833BB4294
:1025E0002A46F7D123686268656B03F16043B3F54F
:1025F000F84F34D840F628031B681B699A422ED343
:10260000B2F5802F2BD840339D4202D3B5F5802FF1
:1026100005D9FEF73FFA80F00100C0B222E0FEF7D4
:1026200039FA28B1204605B0BDE8F040FFF728BFD1
:1026300028463146102200F089FD90B96B6983B1BC
:10264000022BEFD1A96904312046091B4FF0FF325C
:10265000FEF73AFA054BC31A5842584102E00020EF
:1026600000E0012005B0F0BD60330000E320BBDED8
:10267000B1F5BC7F10B504460FD300214FF4BC72F6
:1026800000F07FFD04F1240004F1B40104F1FC0228
:102690000023BDE8104000F099B940F2052010BDBC
:1026A00013B5044600912430214600F0CFF9C4F858
:1026B000740118B141F2070398420DD1A3784BB1D0
:1026C000E07840F2022240F20323002814BF1846AB
:1026D000104601E040F2012002B010BD4FF000535F
:1026E0004FF20F0218805A8070474FF000534CF29F
:1026F0003C325A80704700004FF000534FF20F02F7
:102700005A800A4A1880136823F4E06343F4806314
:102710001360BFF34F8F0649064BCA6802F4E062AC
:102720001343CB60BFF34F8F00BFFDE700500E4057
:1027300000ED00E00400FA054FF000534FF20F01E6
:102740005A888A4201D1188870473AB91B88012BF0
:1027500040F2022018BF4FF4007070474FF4007031
:10276000704710B54B688C689C421ED290F8402090
:10277000121B1344402B18D88B684A68934212D21C
:102780000A6890F84140D25C90F84030234403F04E
:102790003F03C2548B6801338B6090F840300133A3
:1027A00080F84030E8E7012010BD002010BDF8B5EA
:1027B00017468D684A68551B90F840202A449A4273
:1027C00004460E4608D2FFF7CCFF68BB122384F8FC
:1027D000463041F20200F8BD002594F84020E2B1F5
:1027E0009D421AD094F84120A25C7A5594F8412079
:1027F000013202F03F0284F8412094F84020013A6F
:1028000084F840200135E8E79D420AD231688A5CAD
:102810007A55B2680132B2600135B26871688A4295
:10282000F2D39D42D2D101E00020F8BD38462946BE
:10283000D4F88820FEF748F99DF81830C4F88800CD
:1028400023B1E06C39462A46FEF7C0F99DF81C30EA
:1028500043B194F843302BB1A06C39463A462B462D
:10286000FEF764F994F8433043B1E36DA26D2B4455
:102870009342E36524BF002384F84330636D1D4415
:10288000656541F20300F8BD30B585B000230093C3
:1028900001931546082302AA0446FFF788FF41F278
:1028A000030398423FD194F8433053B1E06C02A93E
:1028B0000822FEF78BF902A9A06C0A460823FEF74E
:1028C00035F99DF80A309DF80B209DF80F101B0478
:1028D00043EA02639DF8082013439DF8092043EA68
:1028E00002239DF80E202B60120442EA01629DF83B
:1028F0000C100A439DF80D1042EA01226A6094F818
:10290000432052B9094A934207D0094A934204D05E
:10291000E06C02A90822FEF759F96B6823650023D1
:10292000636541F2030005B030BD00BFF70A0AF746
:10293000FC0404FC2DE9F8431F465B680546884605
:102940001646002B3FD0FFF703FA296E021D7418BC
:1029500094421BD31C30814218D28A42134638BF9E
:102960000B46A04294BFC3EB0004C3EB0404591A06
:10297000981A08EB0109683049462246284400F0BD
:10298000F5FB4846FF21224600F0FBFBFFF7E6F986
:10299000296E031D99420DD8741800F10802944263
:1029A00008D3581A4044FF210368C5F88030042238
:1029B00000F0E7FB32463B687C68286E4146A04742
:1029C0002B6E1E442E660020BDE8F88303F0200322
:1029D00070B580F8423015464FF0FF3300220446B0
:1029E000C0F8883080F8462080F8402080F84120E8
:1029F00080F8432080F8452080F844200266426633
:102A00000E461822FF21683000F0BBFBFF21042294
:102A100004F1800000F0B5FB04F18400FF210422E2
:102A200000F0AFFBA664E564FFF790F918B116B9A2
:102A300041F20B0070BDFFF787F908B10DB9F7E758
:102A400015B1E06CFEF7B8F8002070BD2DE9F04F2D
:102A500099B00026229D0592044688469946069321
:102A60000796079A4A4580F0688394F84630122BFF
:102A7000F8D8DFE813F013002800000170013401DA
:102A8000E701AC01DB01E701D601E701D601AB02AA
:102A900064032D03350339034B026403204605A963
:102AA00003AAFFF7F1FE41F20303984240F0498385
:102AB000049B236500236365039AAA4B9A4240F066
:102AC0004A81022336E3204605A903AAFFF7DCFE6C
:102AD00041F20303984240F0348394F84420039B6E
:102AE0001AB1A14A93427AD035E194F8422012F00B
:102AF000010F9E4A49D094F84310002945D19342D2
:102B000074D016D89A4A934200F0258105D8954A88
:102B1000934200F02081974A1CE0974A934200F0CC
:102B20001A8102F10132934223D1122384F84630F4
:102B300028E08D4A934217D007D8904A93420CD090
:102B40008F4A934215D10E23F4E28E4A934200F04D
:102B500002818D4A93420CD1FDE00F2384F8463068
:102B6000236DA365E1657CE7FFF7EEF8002836D01A
:102B7000F1E0122384F8463003A8FFF7E1F80028BB
:102B800040F0EC8041F20800DBE2934229D00AD801
:102B9000774A934211D0784A934210D0754A9342B3
:102BA00026D10623C6E2774A93420CD0764A934256
:102BB00007D06D4A93421BD107E00423BAE20723F2
:102BC000B8E20923B6E20B23B4E2FFF7BDF8002810
:102BD00040F0C18094F84330002B40F0BC800C23BF
:102BE000A8E294F84330002B40F0B5801023A1E216
:102BF00003A8FFF7A5F8D0B11123039884F8463055
:102C0000C4F88C00FFF79EF894F842309A06064606
:102C10007FF527AF00283FF424AF4368002B3FF433
:102C200020AF2046984700283FF41BAF96E01223C0
:102C300084F8463094F84330002BA3D041F20400CE
:102C40007FE29DF826309DF827201B0443EA0263AB
:102C50009DF8242013439DF8252043EA0223029384
:102C6000DB0726D594F8423043F0010384F8423064
:102C7000FFF76AF838BB636D072B4FF0010300F2D2
:102C800059820093002301932046082305A908AA2E
:102C9000FFF78DFD41F20303984240F052829DF808
:102CA0002330032BCDD0122384F8463041F20900A3
:102CB00047E2FFF74BF80028DAD0122384F84630B9
:102CC00041F20A003DE2029BDF05F6D5D3E705237A
:102CD00084F84630012384F8453000236366636D31
:102CE000072B3FF6BEAE0127082300970197204629
:102CF00005A908AAFFF75BFD41F20303984240F0E3
:102D000020829DF822309DF82320204988F8007009
:102D10001B0443EA02639DF8202013439DF8212001
:102D200043EA0223C8F804309DF826309DF8272096
:102D30001B0443EA02639DF8242013439DF82520D9
:102D400043EA022328220293126810688842BED107
:102D5000D2689A42BBD0122384F8463041F2010077
:102D6000EFE100BFEB17A603FC0404FCF70A0AF727
:102D7000F50909F5F40A0AF4F60808F6F90707F95F
:102D8000FA0606FAFD0303FDFE0101FEAD1007B0D1
:102D900000920192204605A908AAFFF708FD41F21A
:102DA0000303984240F0CD8108AB08F108020DF111
:102DB000380E1F4603CF7745106051603B4602F145
:102DC0000802F6D138681060012388F80130626D7E
:102DD000236D9A424FF00102DAD384F8462040E690
:102DE0000123009301932046042305A908AAFFF7B5
:102DF000DEFC41F20303984240F0A3819DF82230AB
:102E00009DF823201B0443EA02639DF8202013430E
:102E10009DF8212043EA0223226D0293042A88BFF1
:102E20002366636D032BDBD90A2383E100236366EA
:102E300008237FE10A2B4AD12046594652462B46A9
:102E4000FFF778FD626D236D9A4280F072810699DA
:102E500007989B1A94F840200F1A032B174406D9A1
:102E6000032F07D8204605A9FFF77BFC65E19F42A9
:102E700003D2F7E7402B28BF4023C0EB010A92445E
:102E80009A4528BF9A46BAF1030F88BF2AF0030A71
:102E900001230DF1200B009301932046534605A911
:102EA0005A46FFF784FC41F20303984240F04981FF
:102EB00094F84630072B01D1AF68F7B9BAF1030F88
:102EC000B8D8FF220BF80A200AF1010AF6E7052B11
:102ED000B8D1EB68002BB5D0606E04280CD80AEB93
:102EE0000003062B08D909AB181AFF210368C4F8A0
:102EF0008430042200F045F9EF682B68606E594673
:102F00005246B847636E534463669BE794F8423079
:102F1000980630D5D4F88C00FEF714FF064650BB57
:102F20001CE799062ED56EB333695BB320469847EC
:102F3000069B079FDF1B94F840301F44874291D3C4
:102F4000626D236D9B1A402B28BF40239F4228BFF0
:102F50001F4601230093019320463B4605A908AA7A
:102F6000FFF725FC41F20303984240F0EA8094F811
:102F700042309A0608D4236D626D9A4294F842302A
:102F8000CFD312E00120D3E7002E3FF4E7AED6F80E
:102F900008C0BCF1000F3FF4E1AE204608A93A4654
:102FA0002B46E0470028E6D0CBE09B0640F1C180ED
:102FB000002E00F0BE80F368002B00F0BA8020469F
:102FC00029469847002800F0B480BAE00023009317
:102FD00001932046042305A908AAFFF7E8FB41F264
:102FE0000303984240F0AD80D4F88820564B9A42B3
:102FF00005D0122384F8463041F20500A1E0FEF727
:10300000A3FE10B9012388F8033098F80330002B91
:103010003DD094F845303BB1EE682EB1042004F168
:10302000840102462B68B047236E83B36B6873B389
:1030300018AF4FF0FF3347F8583D04F18009384688
:103040004946042200F082F840B1FEF787FE28B11D
:103050006E682B68043049460422B04704F16806C4
:1030600038463146042200F071F880B16F68FEF7EF
:103070006FFE04F16C0114222B680830B8476F68AA
:10308000FEF766FE3146043004222B68B847012360
:1030900088F802300D2384F846304EE00023019377
:1030A00000971023204605A908AAFFF780FB41F2EC
:1030B0000303984245D1D4F848A0FEF7ADFE802323
:1030C000009001935046022109AA3B46FDF70AFDF4
:1030D000636D0F2B4FF00107E0D984F84670C0E410
:1030E000012384F8433025E094F844700FBB40235B
:1030F00000970197204605A908AAFFF758FB41F25F
:10310000030398421DD1E06CFDF762FDE06C08A955
:1031100010AAFDF71BFD38B1122388F8037041F2A5
:10312000060084F846300CE0012388F8033084F868
:103130004430012384F8463093E4002001E041F25A
:10314000070019B0BDE8F08FE320BBDE10B50A44DC
:10315000441E914208D014F8013F0878834201D000
:10316000181A10BD0131F4E7002010BD10B5431E40
:103170000A44914204D011F8014B03F8014FF8E7DB
:1031800010BD02440346934202D003F8011BFAE744
:1031900070470000F8B500BFF8BC08BC9E467047F9
:1031A000F8B500BFF8BC08BC9E46704707B0CD5EBE
:1031B00001000000000004018C2B00000040000012
:1031C00000000400F70001002D0900003109000093
:1031D000C525000071260000A12600002033000054
:1031E0002000000000010000050C0000FFFFFFFFB1
:1031F000FFFFFFFFFFFFFFFF0000000000000000D7
:103200000000000001000000FFFFFFFF512563FCEC
:10321000C2CAB9F3849E17A7ADFAE6BCFFFFFFFF51
:10322000FFFFFFFF00000000FFFFFFFF96C298D8DE
:103230004539A1F4A033EB2D817D0377F240A463DF
:10324000E5E6BCF847422CE1F2D1176BF551BF37E8
:103250006840B6CBCE5E316B5733CE2B169E0F7CBB
:103260004AEBE78E9B7F1AFEE242E34F0102030026
:1032700028000000280000000008000000000400F2
:103280008832000002000000454652333200000040
:1032900001000000010000000018020000D8010039
:1032A000D89E05C107D57C3617DD703039590EF729
:1032B000310BC0FF11155868A78FF964A44FFABEEF
:1032C000800000000000000000000000000000007E
:1032D00000000000000000000000000000000000EE
:1032E00000000000000000000000000000000000DE
:1032F00000000000000000000000000000000000CE
:1033000067E6096A85AE67BB72F36E3C3AF54FA576
:103310007F520E518C68059BABD9831F19CDE05BA2
:1033200000010000591E0000211E0000811E000047
:10333000F11F00002D20000059220000252100006F
:103340002D23000051200000F71E0000591F00002F
:10335000E1160000F11600000F17000045170000ED
:1033600013B779FAC925DDB7ADF3CFE0F1B614B8DC
:1033700000000000C0EA2101C0EA21016508000048
:083380004108000000000000FC
:10400000007C00205DA6000059A6000059A6000013
:1040100059A6000059A6000059A6000059A60000A4
:1040200059A6000059A6000059A6000059A6000094
:1040300059A60000F8B3000059A6000059A60000D8
:1040400059A600008DA3000059A60000B55B000032
:1040500091A3000095A300000DA600009DA3000001
:1040600059A6000059A6000059A6000059A6000054
:1040700059A6000059A6000059A6000059A6000044
:1040800059A6000059A6000059A6000059A6000034
:1040900059A6000059A6000059A6000059A6000024
:1040A00059A6000059A6000059A600001DA4000052
:1040B00099A3000059A600007DA3000059A60000A6
:1040C0000182000059A6000010B5054C237833B9D1
:1040D000044B13B10448AFF300800123237010BDDB
:1040E000B8000020000000007CCD00000C4B43B164
:1040F0000C480D4910B5AFF300800C48036823B994
:1041000010BD0A48036833B97047094B002BF7D03C
:10411000BDE810401847064B002BF5D0184700BFEC
:10412000000000007CCD0000BC000020B00000209A
:1041300000000000154B002B08BF134B9D46A3F554
:10414000803A00218B460F461348144A121A06F093
:10415000FFFA0F4B002B00D098470E4B002B00D0DE
:1041600098470020002104000D000D48002802D0CF
:104170000C48AFF3008006F0C7FA2000290000F0D9
:1041800013F806F0ADFA00BF00000800007C002024
:104190000000000000000000B8000020281B0020E4
:1041A00000000000000000002DE98048934A536899
:1041B00013F48063A7B008D04FF000531B68A3F13D
:1041C000020EDEF1000343EB0E03012191604FF07C
:1041D0000052002111601EAE002B41D1304605F087
:1041E000EBFE05F051FE0546002839D09DF87830E9
:1041F000012B30D1446B05F0D1FE209B5F0713D516
:1042000005F042FE05F0B1FE044605F0BAFE3CB3EF
:1042100005F03AFE044605F037FE794B98602368B6
:104220009D46636898471BE084B105F07BFD84429E
:104230000CD205F077FD04F13803834206D8636998
:1042400023B1204605F000FE0028D9D105F1C800B1
:1042500005F0FAFDD8E7C83005F0F6FD0028D7D103
:10426000684CE56C30462D0E05F024FB8E2D1CD8D5
:104270006549664AD1F8B00040F00403C1F8B03097
:104280004FF05013136013631366C2F89030C2F8F6
:10429000C030C2F8F030C1F8B0005B4AD36A23F0F6
:1042A0007F0343F02003D36201E08F2DF5D99DF801
:1042B0007930574D012B01BF564A136843F0040370
:1042C000136000232B60544B02229A639B6B03F014
:1042D0000F03934240F01C81D4F86C3101331DD0A0
:1042E0004E4B1A68043B1B681A604D4B1A68043B1E
:1042F0001B681A604B4B1A68043B1B681A604A4BD8
:104300001A68043B1B681A60484B1A68043B1B6818
:104310001A60474B1A68043B1B681A603E4FFB6CDF
:1043200023F0405323F0010343F00103FB64FB6ED1
:1043300043F08073FB663F4B186800B1042005F022
:104340003BFB3B6E23F0C0433B66FB6C43F0060334
:104350003046FB6405F0AEFA9DF87900012812D1D1
:104360009DF87830022B0ED833490B785BB9334A6D
:10437000136843F0010313603B6E314A1A40314B1E
:1043800013433B660870304BC8221A802F4BA02283
:104390001A802F4B0F20188005F0A6FA1E4B2D4ACD
:1043A0009A65D4F86821DF6CC7F30177C2F3072C54
:1043B0005FFA82FE3B0240F20112934200F0D88481
:1043C000B3F5817F0AD2012B46D0C0F0DC84B3F56F
:1043D000807F00F0DC8400210B4642E040F20122A5
:1043E000934200F0CC84B3F5407F00F0D384B3F562
:1043F000007FF0D1D4F8703130E000BF00500E40A3
:1044000000ED00E0B081E00F00400E4000A0004051
:10441000B40AC64364310E4000300E403C80E00FC9
:104420004480E00F4C80E00F5480E00F5C80E00F90
:104430006480E00F8009C6437C05002044300E40B4
:10444000000F0EF0B4C0400BDA180020DC1800207A
:10445000D818002077402057D4F87431C3F30721CF
:10446000DBB24FF41678ACEB0E0008FB00F0B0FBAB
:10447000F8F07044CA1A844508FB02F2B2FBF8F265
:104480001A4445D3864543D88A4241D89A423FD3FD
:10449000B749CB6D23F4FE4323F0020343EA002027
:1044A000C865236DDBB2032B00F27784D4F87C312E
:1044B000DBB21B0313F4702F2AD1AD49C86E20F470
:1044C00070400343CB664B6EE72A23F4FF7328BF8B
:1044D000E72223F0010343EA42034B66A54B012286
:1044E0001A608B6FD807FCD40B6C13F003030ED04B
:1044F00001232B609E4B19469A6FD207FCD41A6C8D
:1045000022F003021A648B6F13F00103FBD12B60BE
:10451000994D112005F08AFA0021022005F0C4F817
:104520006B6A964823F001036B62954B00271F606E
:10453000AB6A23F0070343F00603AB62914BEB62D7
:104540002A6B914B02F07F6213432B638F4B6B639B
:1045500006F022F80121022005F0A6F88C4805F0AB
:1045600041FA02236B678B4805F07CFF06F014F8D4
:1045700006F0A8F805F036FA6B6A854843F0405813
:1045800005F030FA824806F007F8C5F82480D5F81F
:10459000C83043F00103C5F8C8307F4BA26A9A6562
:1045A0000AA908AA352005F0C5FB30B19DF82030D6
:1045B000042B06BF0A9B18683846C30315D57648F6
:1045C00000230CAA816D99540133062BFAD19DF872
:1045D000353043F060038DF835309DF8363043F0C8
:1045E00001038DF836306D4B5A606D4B6D4A1A6081
:1045F00000274FF480715A609A6099829F751F82DC
:10460000DF75694B694A1A605A609A6099829F7592
:104610001F82DF75664B674DDFF8F491C5F88C702B
:1046200008221A70644B654A1A60654B654A1A6025
:10463000654B664A1A60664A6A60664A664B156050
:10464000664A2B601360AB6A654A6F65BB4208BF60
:104650001346644AAF6513606423A5F84430A5F897
:104660004630A5F84830A5F84070A5F84270A5F886
:104670004A30A5F84C30A5F84E304FF6FF73AB82A8
:10468000112005F0D3F9042840F0ED8603F0ECFF8B
:10469000304605F00FF9544B544AC3F8442148F210
:1046A000E672C3F838214FF40862C3F83421504A47
:1046B000C3F8A0209DF87930012B4E4B05D19DF811
:1046C0007820012A9CBF28221A654AF63F429A6048
:1046D000494B454FDFF83C814FF0C0729A6200238E
:1046E000C7F8FC30454BC7F89C30454B7F221A6019
:1046F00003F1007323221A6003F54153343303227C
:104700001A604FF40023C7F894304FF0010A402399
:10471000C9F800A0C9F800304FF46073C8F8003041
:1047200001F0A6F9C8F800A001F044F9824600287B
:10473000FAD101234FF00450F86740F6E462C7F85D
:1047400080303049DFF8D08006F08BFD2E4B3B6681
:1047500098E8070086E80700842251462B4805F0B8
:10476000F7FF96E8070088E807006822514655E001
:1047700000300E409407C64300400E400148E80157
:10478000A004C8432000050007AD0AD047A00200DE
:1047900000F049020005080000500840D800002041
:1047A000380A002080060020200A00208005002012
:1047B000111900208C070020181B002030B40000C5
:1047C000201B002048B400001C1B002038B400004F
:1047D00080070020481800204D63000014000020CE
:1047E000E16800002C00002000400840C0E6535162
:1047F0007A27000F0030084000700840806D630386
:104800002430084400B50000B80F00217C0F0021BF
:10481000944008460C400846E00F0021C44805F0CB
:1048200097FFC7F888A0C7F88CA0C7F890A0626D62
:104830002368D2B2FF2A43F3074301D05F1C01D1A2
:1048400090221923BB49022093FBF0F342FA83F331
:10485000CB7423234B74B84B88744FF603721A60E1
:1048600003F100734FF00008C3F800804FF080435D
:10487000C9F80030B14BB24A1A60B24AB2490323B8
:104880001360516040F6FF715162B049C2F8308048
:1048900051635365AE4AAF491380AF4BAF4AA3F89B
:1048A0000080AF4BC3F800805A604FF400525A6248
:1048B000AC4A4FF44073136002F100724FF47A7700
:1048C000C2F8008002F17E420432136002F10072ED
:1048D000C2F8008002F17E42043213604FF480720D
:1048E0000A6001F17E4104310B609F4B1A6003F1B5
:1048F0007E436C3BF0221A6003F10073A0221A6021
:104900009A4B0122C3F8B82004F094F9984B9948C7
:10491000012241461A604C2205F01AFF964B974837
:1049200001221A60964A974B136003F021FD4FF461
:10493000FA62B0FBF7F79448A7FB02234FEA022A7A
:104940004FEA032B10EB0A004BEA126B4FF0000109
:1049500041EB0B018D4A002306F0ECFA884AA0F5E2
:104960008073824618F5FA70936247F100014FF4A4
:104970007A72002306F0DEFA80468B46BAF1000F09
:1049800004D12B2004F084F94FF0010A4FEA5A0EAB
:104990004FEA0B214FEA082010EB0E0041EA1861A4
:1049A00052464FF0000341F1000106F0C3FA784B84
:1049B0001960784B834618604FEA0A634FEA1A2A57
:1049C0002FB92B20039304F063F9039B01274FF4C5
:1049D0007A784FEA570EA3FB080110EB0E0008FB94
:1049E0000A113A4641F10001002306F0A3FA6A4B8E
:1049F000634F1960694B18600BF1FF333B63684BE1
:104A000068484FF08052C3F880211A60664A01233B
:104A10007B600723C2F8843003F0AAFCB0FBF8FBEC
:104A20006248634ADFF8B8814FF0000A10EB0A00D1
:104A30004FF0000141EB0B01002306F07BFA5D4BC8
:104A400018604EF6602003F049FC5B4B4042186250
:104A50005A4800F0CBFF5A4B7B67A3F52003C7F8F9
:104A60008430584F4FF000033B704FF40023C9F8D7
:104A70000030554BD3F8C82042F0CC018A4240F0B8
:104A8000A081494AD268D00700F19B81D3F8103148
:104A9000C3F30823002B40F09481EFF3108072B62B
:104AA0004A4BD3F818E0A3F5C0434FF06052D3F857
:104AB00084C0C8F80020464A4FF0006111602422EB
:104AC000C3F88420434A042111604FF480429A665F
:104AD0004FF480525A621A6E5104FCD51A68D205FE
:104AE000F9D54FF480429A66D3F888101E911FFAC8
:104AF00081FA39494FF0040BC1F800B03349C3F8CB
:104B000084C0C1F818E09A6604F068FF4FF6050308
:104B10004FF60402924508BF9A46194BC3F858A0B5
:104B200001233B702D4B186803F066FC5AE000BF70
:104B3000140F00217C0F00217C0008444009002054
:104B4000115900003010084048160020F0080020DD
:104B500032090020A8000846300900206C08002017
:104B600090100840A0000844AC000846001008401F
:104B70000C400844280F0021C8400E4600040600DF
:104B8000005008400011010020A1070040420F0022
:104B90004416002040160020AC090020A80900207F
:104BA00000E100E0605107000040084000093D00BE
:104BB00000127A003C160020900F0021C007002050
:104BC0000300C0003416002000400E400060084082
:104BD00018600846004008460040084418000020BD
:104BE00018600844C24BC34A602106205964106013
:104BF0000022C3F88420C04B4FF080521A604FF45B
:104C00000013C8F800304FF06053C8F80030BB4BB9
:104C100040F6FF725A625A6503F1C063A3F6BC7393
:104C2000B74A196040211160D5F88C20B54912F0BF
:104C3000080F4FF0080014BF1860086012F0010F51
:104C40004FF0010014BF1860086012F0040F14BF89
:104C5000AD4DAE4D4FF4007012F0020F28604FF0D2
:104C6000020014BF18600860A14B12F0100F14BFAF
:104C700000221B22DA6404234FF0C052194610466A
:104C800004F09EFAA24BA34F95A1D1E9000103F1D4
:104C90000C05C3E915013B604FF0FF3192A3D3E946
:104CA00000236FF0010004F08BFA284601F098FF12
:104CB000944B38684FF0010808221A60C3F800804E
:104CC00003F5BF4358334FF400721A60924B02222F
:104CD0001A60874B1B22DA6464234FF0000AA0F8A5
:104CE00044309422A0F84A309623A0F84C20A0F833
:104CF0004830A0F840A0A0F842A0343000F076FE82
:104D00003D6805F10C0004F01DFA4FF00063C9F88E
:104D100000302B7B814A43EA08032B7353683D68BC
:104D200023F00F0343F0030305F10C0005F13409F0
:104D30007B4D5360514601F0FBFE03F095FCC5F836
:104D400000A0C5F804A0C5F808A0764B606AD3F8A7
:104D50008831754CC04300EA080003F4800318430F
:104D600000F09C8303232370704BFF221A70C1E371
:104D7000D4F87431190EC3F30743FFF772BBD4F8AC
:104D80007831FFF76BBBD4F86C31FFF767BBD4F811
:104D90006C31EFE7D4F87031ECE7022FD4F88031B2
:104DA00008D0032F0AD0012F7FF482ABC3F307236F
:104DB000FFF77FBBC3F30743FFF77BBB1B0EFFF778
:104DC00078BB142003F064FFAAE6012B2B68DFF800
:104DD0008CE1574A574C5848584903EA0C0311D103
:104DE00043F003032B6007230325CEF80030156042
:104DF000236006230360524B0B60524B4FF440423A
:104E00001A606FE343F0804343F014032B600723E1
:104E10000425CEF800301560236005230360C0230D
:104E20000B608122484BEBE7FF2170E32068B860FC
:104E3000A288A37988F80630A8F8042078E3434BC9
:104E4000099918681B791E90337141B39DF81F2092
:104E50001B2A28BF1B22531D8DF81E300DF17D002B
:104E6000531C8DF87B3006F0FCF916A805F040F9CC
:104E7000374A9DF81E301288F25226A99A1C51FA20
:104E800082F2002102F8201C1698BDF85C1042F84E
:104E90001F0C093322F81B1C8DF81E308BE30E23E8
:104EA0008DF81E300A238DF87B302A4B1A68CDF816
:104EB0007D205A681B7ACDF881208DF88530D4E7A3
:104EC000254B1A889B788DF85A300323ADF858206B
:104ED0008DF81D3083E309211E48B4E3AFF3008051
:104EE000081B880200000000081B881A040000004C
:104EF0000000084070000844944008440010084036
:104F000088400844440008441C6008461C6008446B
:104F10008C070020740A0020440008467C0F002102
:104F2000E00F002100400E40380900201C00002046
:104F3000004108460C4108440C4108460841084419
:104F4000C10040000441084408410846E4C3000091
:104F5000F4C30000EAC30000F7C3000000410844A6
:104F60003B79B64AB6494FF4804005F023F93B79C6
:104F70004FF0000A08F1FF32082BA4F802A092B209
:104F800000F08E812DD8042BAE4D59D0062B00F0A9
:104F90009080022B2CD1022A40F05482B6F80530C2
:104FA000A94AAA494FF4804005F004F9B6F80580F3
:104FB000A74AA649B8F5007F28BF4FF400784346BA
:104FC0004FF4804005F0F6F800220323114602203A
:104FD0002B70A5F8018004F00FF8A4F8008000F011
:104FE00080BC102B00F0C28105D80A2B00F0BE80D7
:104FF0004FF006098CE1122B00F0F180522BF7D113
:10500000A8F103081FFA88F5B6F80530914A009513
:105010004FF48040904905F0CDF8B6F8050003F054
:1050200069F8002800F05D84037B5B0740F1598438
:105030002A468A49B6F8050004F01BF800F051BC76
:10504000042A40F0FF81B7F80720B7F805308449FB
:1050500000924FF48040834A05F0ACF8B7F8059011
:105060001FFA89F31846049303F044F8C846049BDA
:1050700010B9A4F802904BE090F80890D0F804B072
:10508000794A0093B9F1020F0CBF4FF0010A4FF0BB
:10509000020A534675494FF4804005F08BF805230A
:1050A0002B7085F801A0A5F802804A4659460320D6
:1050B00092E0A8F107081FFA88F8B7F80530CDF894
:1050C0000480B7F80720009269496A4ADFF8CCB13A
:1050D0004FF4804005F06EF84FF00203B7F805007A
:1050E000B7F807108DF84C300BF10203CDF80480AF
:1050F0000093CDF848B012AB0CCB03F023F84FF679
:10510000FF794845804606D17B68C3F30F2363804F
:105110004FF00A09FCE04FF002038DF83C30CDF867
:1051200004A0CDF800A0CDF838B001300EAB0CCB08
:10513000494680B203F006F8484582461CBF00F19C
:10514000FF3A1FFA8AFA4346CDF800A04A4A4B4973
:105150004FF4804005F02EF807232B70A5F801804E
:10516000A5F803A000221146042035E0022A40F0F1
:1051700069814FF48040B6F80530414A414905F055
:1051800019F8B6F8050002F0B5FF10B94FF00109A3
:10519000ADE3037B990740F1A883238826AA013B4E
:1051A00022F86C3D12A9B6F8050003F03DFF8146D8
:1051B000002840F09C83BDF82C50334A3349DDF879
:1051C00048802B464FF4804004F0F4FF1D4B0B2227
:1051D0001A7041462A46484603F00EFF81E3A8F1C3
:1051E00003081FFA88F5B7F80530294A00954FF4EF
:1051F0008040194904F0DEFFB7F8050002F07AFF9D
:10520000002800F07983037B1A0740F17C832A464B
:105210001249B6F8050003F02CFF8146002840F043
:105220006D831C4A1C494FF4804004F0C3FF054BBA
:1052300013221A7049464A464846CDE7AEB30000ED
:105240007BC400005818002025B3000091C5000061
:10525000D8B200007CB300000FC50000E7000020BA
:105260009DC50000C9B30000EFB200008EC400006D
:10527000B2C40000DCB300000AB30000DBC40000CD
:1052800044B30000BBC5000034B3000000C50000FB
:1052900073B300004CB300002DC50000E9000020EE
:1052A000A8F105081FFA88F8B8F1020F02D0B8F18A
:1052B000100F2DD1B6F80720B6F805306B490092D3
:1052C0004FF480406A4A04F075FF6A4B12938DF8E0
:1052D0004C800023B6F80710B6F805000193009340
:1052E00012AB0CCB02F02EFF4FF6FF73984205462F
:1052F00023D0238826AA043B22F8763D0BA903F08D
:1053000093FE8146D8B16580B9F1000F00F0E982C3
:1053100096F804806588584A584943468DE820022B
:105320004FF4804004F046FF554B01221A7083F879
:1053300001805D8083F8049014E77368E5E6BDF8AA
:105340002280504A5049CDF800802B464FF48040CF
:10535000DDF82C9004F02EFF494B09221A7008F159
:1053600002025A705D8042464946A0E6A8F1050552
:10537000ADB2022D01D0102DCAD1B6F80720B6F873
:1053800005303A4900924FF48040404ADFF8E4B0DB
:105390004FF00009EDB204F00DFFB6F80500B6F8C5
:1053A0000710CDF848B08DF84C50CDF80490CDF8EA
:1053B000009012AB0CCB02F0C5FE4FF6FF7A5045C1
:1053C0008046BAD08DF84450CDF80490CDF80090C6
:1053D000CDF840B008F1010010AB0CCB514680B2C3
:1053E00002F0B0FE238826AA5045A3F10603054625
:1053F00022F8763D18BF00F1FF350BA9404618BFD3
:10540000ADB203F011FE814610B1A4F802807BE733
:10541000BDF822901E4A1F49DDF82CA043464FF4E8
:1054200080408DE8200204F0C5FE154B11221A7051
:1054300009F104025A70A3F802809D804A46514641
:105440000520C9E64FF0040962E71022002112A8E6
:1054500005F07EF9104B129312A9022348461393CC
:1054600004F038FC3DE23B460DE400BF9DC5000062
:10547000A0B30000E9000020C7B200005DC5000035
:10548000581800205DB300000FC50000B6B300003F
:1054900085B3000033C5000010000020C14B1A681E
:1054A0009B88A380226003F007FB49460A2003F093
:1054B00081FA2378DFF898C3022B7FF486AC2A6840
:1054C00002EA0C0343F0804343F020032B60B64B09
:1054D0004FF4EE421A6003F100734FF48A421A60EF
:1054E00043F8048C002003F0E7FAB04B03221A6063
:1054F00003F038FAAE4C3868B4F9002047F6FF7173
:105500008A423FF491AC002104F086FD01463868E0
:10551000DFF840830C3001F00BFB6468002C7FF453
:1055200085AC404604F0E4FDBB7B64F30003BB7331
:10553000A04AA14DDFF82093A04C2023BB8200217C
:1055400082F80133284682F8033382F8053382F863
:10555000063382F8043382F8073382F81C33602262
:1055600005F0F6F89648974B85E8090025236B72FD
:1055700001232B720023C9F800300DF11F021B23F9
:1055800009A93620238004F0D5FB0DF11E020AA9DB
:10559000392004F0CFFBCDF80C9000283FF44FAC3D
:1055A0009DF81E200A99202A28BF202230468DF817
:1055B0001E2005F056FE0DF11D020AA93A2004F046
:1055C000B9FB00283FF47CAC9DF81D200A99202AE5
:1055D00028BF202216A88DF81D2005F042FEDFF816
:1055E0007C92794800234FF0020AC9F80030C9F8CC
:1055F0000430764B036080F804A003F099FF7448F0
:10560000744B036080F804A01023037203F066FF5C
:105610007148724B0360724B80F804A0C36080F83D
:1056200008A0A0F810A08DE80804534690E80600F2
:10563000143003F0A1FD0998CDF8109000283FF434
:105640004AAC9DF81F1003F083FF6648664B036069
:105650004FF0100980F8049003F06AFF6348644A31
:10566000644B03604FF6FE7A0823C26080F8049012
:10567000A0F810A00372059303F030FF5E485F4A64
:1056800002600C2202725E4AC26080F80490A0F8A8
:1056900010A003F023FF5B485B4A059B02604FF0BC
:1056A000020B5A4A80F80490C260038280F808B066
:1056B00003F014FF5648574B0360574BC36080F804
:1056C00004900123038280F808B003F007FF5348D9
:1056D000534B0360534BC36080F80490A0F810A0B4
:1056E00080F808B003F0FAFE4F48504B0360504B6F
:1056F000C36080F80490A0F810A080F808B003F010
:10570000EDFE4C4B049A1A604FF6FF729A809DF89A
:105710001E20202A05D8931DAB733146464805F05C
:10572000A0FD9DF81D20202A06D8931D85F836304F
:1057300016A9424805F095FD00F028FF2B7BBA7BA7
:1057400043F001032B736B7B02F0010203F0F003C3
:1057500062F386136B73AB7B0BB90623AB73384BC9
:10576000B8F80410D8F800009980186095F8353022
:10577000042161F3030362F3861385F8353095F84D
:10578000363013B9062385F836302E4BD8F8000092
:10579000B8F8042018609A802B4F00F05FFF3E4657
:1057A0002A4A5DE050C6000024410844584108449C
:1057B000D800002000E100E048090020D4000020CB
:1057C000D6BE898E55555500B0080020FBC3000099
:1057D000F0030020FEC300005005002001C40000BB
:1057E000C4B20000D008002004C400004804002017
:1057F000117E000015C40000A004002026C4000093
:10580000457B00004003002037C40000EFB30000D8
:10581000F804002048C40000CEC500009803002012
:1058200059C40000257B0000E80200206AC4000083
:10583000E57A0000D40B00205D09002085090020D6
:10584000570900207F090020E00000201C0A0020EA
:10585000E8FFFFBF7C0A0020E4020020601800205F
:105860001378002BFCD0EFF3108572B600231A4694
:105870000DF12101254804F055FD284604F0AEF84D
:105880009DF8213013B1039A00231360039B1A681B
:10589000EFF3108872B6C2F501739BB23A440DF172
:1058A00021011A4804F03EFD0546404604F096F8F2
:1058B000039B18682844032818607FF671AFB7F877
:1058C000008008F104039842FFF46AAF09D8B7F8E2
:1058D0000290B9F1040F3FF443ABB9F1060F3FF466
:1058E000B4AD039A002313605AE74FF002097368BE
:1058F000C3F30F23638007E54FF001097368C3F317
:105900000F23638004E54FF00309F7E7200A002026
:10591000084BD3F8882012060AD408229A60064B56
:105920001B6813F4007F14BF044A054A0223136066
:10593000704700BF00400840240F00210040084687
:1059400000400844F8B5084D084E094F04242C6067
:10595000D6F888305B0300D4F8BD3C60022002F02A
:10596000BDFE2C60F4E700BF8840084600400840B8
:10597000884008440A4A53685B0708D1094B5B68B2
:105980002BB1094B1B6AC3F30C03013B9361074B1B
:1059900080221A60064A136823F0400313607047A0
:1059A00000000840740F002100100840884008469D
:1059B000140F0021024B5868C0F30360704700BF0A
:1059C0000040084008B5074B408B9B88C31A4FF432
:1059D0007A705843A0F6C41002F080FC024BD861E4
:1059E00008BD00BF38090020900F002170B50446A3
:1059F00000283AD083894FF47A70584323B1236842
:105A000003F51C531033184402F068FC174DE3896A
:105A100068604FF47A70584323B1236803F51C5330
:105A20001033184402F05AFCA861208A4FF47A76A9
:105A30007043A0F50350103802F050FC2860204657
:105A400002F07CFC204602F01DFC204602F05CFCCB
:105A50002046FFF7B7FFA368208B06FB0030A0F5B8
:105A60000350103802F03AFC686170BD900F0021BD
:105A7000EFF3108072B6104B4FF00062C3F8802035
:105A80008022C3F880200222C3F880200822C3F8B5
:105A900080201022C3F880204FF08052C3F880206D
:105AA0004022C3F880202022C3F880204FF080429B
:105AB000C3F8802003F092BF00E100E0EFF3108014
:105AC00072B6124B1978B9B9114BD3E900230023F0
:105AD00002F4105213430FD10E4B10221A600C4BDC
:105AE000D3E90023002302F4807213430AD00A4B47
:105AF00020221A6003F072BF074B10221A6000299F
:105B0000F5D1ECE72022034BF3E700BF3E0900206C
:105B1000701800209440084494400846044B00222A
:105B20001A70044B197811B11A70FFF7C7BF70478C
:105B30003F0900203E09002038B50C4B1B789BB173
:105B40000B4B1C6DC4F30C0474B9FFF7E7FF094B52
:105B5000094DD3E900012246012300F480500021C1
:105B60002B7001F05DFA2C7038BD00BF3F0900209A
:105B70000010084070180020241B002008B5EFF327
:105B8000108172B6FFF716FF032806D1074A536843
:105B900023F0F00343F0E0035360054B01225A6207
:105BA0000846BDE8084003F019BF00BF7C0F002184
:105BB00000000840984B2DE9F04F1E6EDA6E16403B
:105BC0009E6603F580538BB0D3F8E010D3F8EC2039
:105BD00001EA020AC3F8E8A003F5A043D3F8801055
:105BE000D3F88C2001EA0209C3F88890A3F500538A
:105BF00059691A6A01EA02084FEA18421204DA6186
:105C0000864AD1680191D76D916E0F4027F40061EB
:105C10005166002E00F0F880350440F1DE80D3F8A4
:105C200088307F49802003F4E0520A600860102029
:105C300041F8880C002A00F0D280DC0400F1D28008
:105C4000580500F1D2804FF40004B1074FF0000571
:105C50000BD5744B7249D3F8883003F460420A6064
:105C6000002A40F0C58044F4801416F4005F0CBF95
:105C7000002602266C4B0AEA0303002B54D01AF4C8
:105C8000206F07D0002004F0A9FC06202AF4802A07
:105C900002F0FEFF1AF0090F09D0624B20229A6031
:105CA000A3F5405301229A62082002F0F1FF1AF096
:105CB000106F18D05B4B20229A60A3F5405301224D
:105CC000C3F8B8200093EFF3108B72B6002003F0F6
:105CD000E3FD584603F082FE009B0422C3F8B8207F
:105CE000092002F0D5FF1AF4202F07D0002004F07D
:105CF00075FC07202AF4802A02F0CAFF1AF4803FBC
:105D000012D04A4B4FF480321A60494BC3F8E4205A
:105D1000D3F88020C2F30C023C2A05D8D3F8E03037
:105D2000D80301D502F06CFF1AF0040F09D0414BE3
:105D30001A684FF40053002A69D03F4A44F4802483
:105D400013601AF4806F18BF44F004041AF480231F
:105D5000009300F086803949394B0A881B883948FE
:105D60001344043292B2033B0A8003F03C033649E9
:105D700003444A6293F802B01BF0070219D193F86A
:105D800003E01EF0810F45D1304A0DF1080A516839
:105D90001068D446ACE803002D4908328A42E24636
:105DA000F5D10AAA02EB9E0E1EF8202C4BEA020146
:105DB0009970042A03D11B4841680903FCD4254982
:105DC000013A0B60062A49D8DFE812F037013A01A0
:105DD00037013D01400143014301002435E74FF401
:105DE000002432E74FF000742FE74FF400142CE743
:105DF0001A0402D544F0806437E79B044CBF44F496
:105E0000800444F0807430E70024002532E7124A11
:105E1000136096E70422C9E70000084000500840DC
:105E20008840084400400840090A0B09EC10084467
:105E300000100840B4040243241008443209002032
:105E400030090020F00800206010084056C600000D
:105E500076C600003409002024100846032002F012
:105E600017FFB9F1000F1DD019F4805F18BF44F47B
:105E7000004419F4807F18BF44F4803419F4005FA3
:105E800018BF44F0100419F4007F18BF44F0200438
:105E900019F4806F18BF44F0400419F4006F18BF64
:105EA00044F08004B8F1000F2FD018F0007F18BF25
:105EB00046F0080618F0806F18BF46F0100618F07C
:105EC000006F18BF46F0200618F4802F18BF45F069
:105ED000040518F4803F18BF44F4006418F4801FD0
:105EE00018BF44F4804418F4001F18BF44F00204A3
:105EF00018F4002F09D0FFF75DFD831EDBB2012BE4
:105F000001D9072801D144F40034002F00F0BD80EE
:105F10003A050DD59C4B9D4901221A609C4B4FF4CC
:105F2000006241F61F705A6608605A6600221A67BE
:105F3000BB0104D52B2002F0ADFB44F0804417F4E4
:105F4000E00F07D1F80440F19580019B13F0060F94
:105F500000F04081EFF3108972B617F4C00F4DD0F6
:105F60008C4A91688909C1F3090389058A494968FE
:105F7000906948BF6FEA8353C2B248BF6FEA935338
:105F8000000648BF62F0FF02814812F1460FC06D63
:105F900034DB13F5007F31D0B3EB820F2EDC01F040
:105FA0007063B3F1806F02D011F0506F26D1C00240
:105FB00024D4222002F06EFB754B4FF480225A60ED
:105FC000DA6DD1021AD4744A01219160DA6E7349F4
:105FD000D966DA664FF4E0025A66BA0207D55A6DFE
:105FE00012F0706F1EBF5A6D02F17F425A6527F49E
:105FF000C0072C2047F4801702F04CFB484603F002
:10600000EDFCB80204D5292002F044FB44F0005412
:10601000790221D5624B01221A605D4B4FF4805208
:106020005A66272002F036FB5E4B80221A6010224F
:1060300043F8882C44F080541CE044F4005410E7EA
:1060400044F480640DE744F400740AE744F4807477
:1060500007E744F0080404E7FA0273D5504B012225
:106060001A604B4B4FF480525A66282002F012FB04
:1060700044F000647F0508D54B4B01221A60444B65
:106080004FF480625A6646F00106484B484FD3E908
:106090000001484B1A6820400123324029403B70E0
:1060A00000F0BEFF00233B70009BDBB1424C236835
:1060B000B3B1D80712D4EFF3108572B63F4E404803
:1060C0003188022B01F03C07074440F0018123682E
:1060D000002B40F0B980284603F080FC00232360A9
:1060E000FFF72AFDB8F1000F29D018F0007F14D077
:1060F000294BD3F83821D20600F10181D3F80011E1
:10610000D3F80021520821F47F1102F4FE120A4351
:10611000C3F800214FF00072DA6118F0006F0ED062
:106120001D4BD3F8383113F0100F0CBF254A264A07
:106130004FF400131360254B4FF000621A600BB050
:10614000BDE8F08FFB0495D5154BDFF844904FF078
:10615000010AC3F800A04FF48053C9F8643022202C
:1061600002F098FA4FF48023C9F80430D9F85C3073
:1061700013F4A00F7FF47EAF2A2002F08BFA144BA9
:10618000C3F828A056E700BFA45008446C50084448
:106190000050084000700840004008400000010125
:1061A000B4500844884008449450084470180020B3
:1061B000241B00206818002034090020300900202A
:1061C000F0080020004108441841084420400844D9
:1061D00000100840504B01221A60504B4FF4805180
:1061E00059664F490A604FF400625A664D4ADA66B2
:1061F000EFF3108A72B64C4B1B780BB1FFF7BEFC65
:106200004A4B1A6DFFF7D6FB032802D0C2F30C02EB
:10621000B2B1474B1A78474B4FF001091A705046FC
:1062200003F0DCFBB9F1000F0CD1434B83F8009075
:10623000FFF744FC4FF48052002314431D4319E739
:106240009146ECE70022F7E723F00103226822F0F1
:1062500001029A4240D1002222601A886FEA42422B
:106260006FEA52429F421A8029D1344A344F108833
:10627000A7F1040A00EB0109043880B2A9EB000180
:106280001FFA81FE191DB94228BF514604282FD894
:1062900010809A781B882549C3F30C03CB6302F066
:1062A0000702284B0EF07F01042A3180D960586222
:1062B00005D1254B1B6803B1984702F063F91B4BCE
:1062C000D3F8E030D9037FF506AF02F099FC02E77E
:1062D000012B08BF3B46B9E701F03F029A1A121A98
:1062E0001648008848BF403204389042B5DCF2E6D8
:1062F000B1F900C0BCF1000FCADA0B46BCE7D3F815
:106300001811D3F81821520821F47F1102F4FE125B
:106310000A43C3F81821FDE6B45008440050084071
:10632000A450084400000101440900200010084066
:10633000450900203F0900203E09002032090020C5
:10634000F408002060100840400900202DE9F04FBB
:10635000854D89B011464FF486709B46924603F0F6
:10636000DBFE2B692E463BB951464FF4837003F098
:10637000D3FE09B0BDE8F08FBBF1000F08BFBAF142
:10638000080F40F0B88000214FF4817003F0C4FE84
:1063900004AA6946022002F089FC0546002800F0A4
:1063A00089809DF8003013F0F70F06D0EFF31080CE
:1063B00072B66E4B1D6003F011FB022D07D8002250
:1063C0002846114602F072FC0546002872D0B5F846
:1063D00000A01AF4004F6DD1AB7803F00703052B32
:1063E00068D9073BD3F1000848EB030802F01EF917
:1063F0005FFA80F9B9F1000F79D05D4B1B6B03F0A8
:106400000703063301259D40AAF1060A594B691E70
:106410001FFA8AFA01EA0A015F686D1A47F000570D
:106420004D45394460D22A4604A804F01AFF04AB53
:10643000A9EB05023946581904F013FF4E4B4F4A99
:10644000D3F80090D36B9DF91070DDF81250C3F3B0
:1064500001111B0C01FB033342F210718B4229D84E
:10646000D46904F01F0401341C4402F09BF8444B2F
:1064700044491B6809684FF0004A4FF0000BE3FBEA
:1064800005AB5A460023E1FB0523D9F834304FF41D
:106490007A7103F5FA73B3FBF1F33B49D21A142373
:1064A000B0FBF3F301FB04340A23B0FBF3F0B4FBBD
:1064B000F0F4141B736804945B7A8DF814309DF823
:1064C00016308DF8157068F300038DF81630BDF89E
:1064D0000230ADF81830029B079304A933690220FB
:1064E000984703F0C1F844E74A4604A8A4E76FF0D0
:1064F0007F074C46DEE7BBF1000F08BFBAF5002F5F
:1065000009D1002140F2011003F006FE2B690021A1
:10651000012098472DE70AF4C0520023134309D005
:106520004FF480714FF4817003F0F6FD2B69002168
:106530000320EEE70AF440720023134308D0012140
:106540004FF4817003F0E8FD33690021FF20E0E79C
:106550000AF020720023134319BF012140F20110F9
:1065600051464FF48370EDE7740A00207C18002038
:106570000010084030100840481800200060084013
:10658000A8090020AC090020A086010008B54FF43E
:106590008570002103F0C0FD054B002203201A6125
:1065A00000F07AFB00F0E0FA0128FBD108BD00BF43
:1065B000740A0020012838B514BF01250225284699
:1065C0000CBF04242C4602F00BFC70B1012002F039
:1065D00007FC50B100F0C8FA420706D40D4B1888EA
:1065E00040F0807040EA05401860204602F0F8FB59
:1065F00078B1012002F0F4FB58B100F0B5FA83073E
:1066000007D4044A13681B0C1B0443F48073234310
:10661000136038BD240F002138B5B1F5007F0E4C52
:1066200028BF4FF40071032222600D466060EFF333
:10663000108072B6D4F8E020530758BF04234FF0FF
:106640000001E160A56058BFC4F8E83003F0C6F966
:106650000DB10223A36238BD001008402DE9F84FA8
:10666000384C394F2646637A384D0133DBB2272B3D
:1066700088BF25232046637203F0C6FAB17B3448F5
:1066800096F80C800231FFF7C7FF6B68314A5B7ADE
:1066900008F00108404612F803A0FFF78BFF2E4BCD
:1066A000D5F80080D3F888301A0608F10C0923D4F5
:1066B0005146484602F0B8FBF0B9484602F0F2FCF9
:1066C000D0B9B8F84A3042F21072934298BFD01A4B
:1066D00001F0EEFF8346EFF3108A72B6DFF8848094
:1066E000D8F8A430DB0704D4D8F80C3013F006092E
:1066F00005D0504603F072F9FFF748FFB3E7FFF704
:1067000039F9164BC8F86C30154BC8F87090082250
:106710001A60144B4FF4006101223A60596640F64A
:10672000014119670320594601F0F8FF18B90C4BD5
:1067300080221A60DDE7504603F050F90A4B2B61C6
:10674000BDE8F88F48090020A4500844740A0020CE
:106750005509002007C80000004008400000010162
:1067600088400844005008406D67000002282DE969
:10677000F3410D461ED002D8012805D0FEE70328BC
:1067800051D0FF284FD0F9E74F4C237B980707D50E
:10679000FFF7FCFEFFF762FF237B6FF341032373D8
:1067A000237B990701D4DA071ED402B0BDE8F0417B
:1067B000FFF754BF8B79CC68DB0734D5227802F021
:1067C0000F07032F13D0052F2DD140498B7B03F0EA
:1067D0000103B3EBD21F04F1080005D106220831F2
:1067E00004F030FD804608B302B0BDE8F0813749BF
:1067F0008B7B03F00103B3EBD21F04F10800F3D14C
:106800000622083104F01EFD0028EDD12E4C94F82C
:10681000361004F135000231FFF7FEFE237B43F012
:1068200002032373E0E7FFF7B1FEBEE7FFF7AEFE1A
:106830002E68274D41465C22284603F089FFAB7E37
:106840002F8343F02003AB76627E237E43EA02234C
:10685000AB84627F237F43EA0223EB8494F82330E6
:10686000C3F3040385F84F3094F82330C3F3421385
:1068700085F8503004F11E001B232B8501F054F8DD
:10688000D4F80E30E27CEB60A37C2E6043EA022356
:10689000227D607D43EA02432B61012795F84F304A
:1068A000AB722F75E18A394401F02AF800F008FD37
:1068B000EA8CAB8C074900924FF40060064A03F063
:1068C00079FC064B1F708FE748090020740A0020EE
:1068D000C009002083C6000076C600001C0A002004
:1068E000704700002DE9F84F804BDFF828B25F6851
:1068F0007F4BD3F8A090D3F8A480044600F128057C
:106900004FF0010A11B10A68531C5AD102F02AF85B
:10691000784B794A9B691278C3F382139A4204D068
:10692000764B2946186802F045F8704B5E68704B4C
:10693000D3F8A010D3F8A42089450AD07048037872
:10694000C1F3802E6EF30003C1F3C02161F3410354
