:10400000007C002029A6000025A6000025A60000AF
:1040100025A6000025A6000025A6000025A6000074
:1040200025A6000025A6000025A6000025A6000064
:1040300025A6000025A6000025A6000025A6000054
:1040400025A600001D9E000025A60000C97C0000DA
:104050000D9E0000119E0000699E0000199E000048
:1040600025A6000025A6000025A6000025A6000024
:1040700025A6000025A6000025A6000025A6000014
:1040800025A6000025A6000025A6000025A6000004
:1040900025A6000025A6000025A6000025A60000F4
:1040A00025A6000025A6000025A60000219E0000F0
:1040B000159E000025A60000FD9D000025A600001D
:1040C0004F73000025A6000010B5054C237833B9C6
:1040D000044B13B10448AFF300800123237010BDDB
:1040E000C000002000000000D8D00000084B10B530
:1040F0001BB108480849AFF300800848036803B9BA
:1041000010BD074B002BFBD0BDE81040184700BF87
:1041100000000000D8D00000C4000020B80000203B
:1041200000000000154B002B08BF134B9D46A3F564
:10413000803A00218B460F461348144A121A07F0A2
:10414000E1F90F4B002B00D098470E4B002B00D00D
:1041500098470020002104000D000D48002802D0DF
:104160000C48AFF3008007F0A7F92000290000F009
:1041700013F807F08DF900BF00000800007C002054
:104180000000000000000000C0000020441B0020D0
:1041900000000000000000002DE980489C4B5B6897
:1041A00013F48063A7B005D04FF000531B68991E2D
:1041B0004B424B414FF00052002111601EAD954E15
:1041C000002B42D1284602F077FE02F081FC074620
:1041D00000283AD09DF87830012B27D1446B02F0AB
:1041E0005DFE209B5A0704D502F072FC02F0D6FC5B
:1041F00017E094B1B36C9BB2B4EB832F0DD2B26CC9
:1042000004F1380392B2B3EB822F06D8636923B16D
:10421000204605F0BFFA0028E6D107F1C80005F0F6
:10422000B9FA044602F0C6FC204602E0C83005F0A8
:10423000B1FA50B102F04CFC044602F049FC764B56
:10424000986023689D4663689847F46C2846240E5E
:1042500004F064FC8E2C15D87049714AD1F8B00076
:1042600040F00403C1F8B0304FF0501313601363F3
:104270001366C2F89030C2F8C030C2F8F030C1F80E
:10428000B00001E08F2C06D1644AD36A23F07F038B
:1042900043F02003D3629DF87930624C012B01BFBB
:1042A000614A136843F004031360002323605F4BEB
:1042B00002229A639B6B03F00F03934240F0438109
:1042C000D6F86C3101331DD0594B1A68043B1B687A
:1042D0001A60584B1A68043B1B681A60564B1A68E0
:1042E000043B1B681A60554B1A68043B1B681A6034
:1042F000534B1A68043B1B681A60524B1A68043B04
:104300001B681A60494BDA6C22F0405222F001021D
:1043100042F00102DA64DA6E42F08072DA664A4AEA
:1043200010681F4600B1042004F012FC3B6EDFF859
:10433000FC8023F0C0433B66FB6C43F00603284639
:10434000FB6404F0EBFB9DF87900012814D19DF883
:104350007830022B10D83D490B786BB93C4A136872
:1043600043F001031360D8F860303A4A1A403A4BE0
:104370001343C8F860300870384BC8221A80384B95
:10438000A0221A80374B0F20188005F093FD274B91
:10439000354A9A65D6F86811DB6C1E4AC3F301737F
:1043A000C1F3072C5FFA81FEDFB240F201111B025C
:1043B0008B421BD0B3F5817F08D2012B13D01BD3C6
:1043C000B3F5807F52D1D2F86C311DE040F201216B
:1043D0008B420ED0B3F5407F14D0B3F5007F45D1AA
:1043E000D2F870310AE0D2F8743107E0D2F87431B3
:1043F0000AE0D2F8783101E0D2F86C31C3F307213A
:10440000DBB235E0D2F87031190EC3F307432FE069
:1044100000500E40B081E00F00ED00E000400E4083
:1044200000A00040B40AC64364310E4000300E4084
:104430003C80E00F4480E00F4C80E00F5480E00FA0
:104440005C80E00F6480E00F8009C64340070020D5
:1044500044300E40000F0EF0B4C0400B1E19002077
:104460001C190020A21200207740205700210B4683
:104470004FF41678CEEB0C0008FB00F0B0FBF8F020
:104480007044CA1A604508FB02F2B2FBF8F21A4403
:1044900059D8704557D38A4255D89A4253D3824946
:1044A000CB6D23F4FE4323F0020343EA0020C865EA
:1044B000336D7E49DBB2032B02D8D1F87C3107E0A3
:1044C000022FD1F8803108D0032F09D0012F01D05D
:1044D000DBB206E0C3F3072303E0C3F3074300E0C6
:1044E0001B0E1B0313F4702F2DD16F49C86E20F4DF
:1044F00070400343CB66486EE72A20F4FF7328BF61
:10450000E72223F0010343EA42034B66684B012292
:104510001A608B6FDB07FCD4634B1B6C13F0030337
:1045200002D00123236001E023600CE05E4B9A6F10
:10453000D707FBD41A6C22F003021A649A6F12F0A8
:104540000102FBD122605B4C5B4F112005F03AFD6C
:104550000021022004F0B0F9636A584823F00103F7
:104560006362574B4FF00008C3F80080A36A23F042
:10457000070343F00603A362524BE362226B524BE4
:1045800002F07F6213432363504B636305F052FED6
:104590000220012104F090F9D7F840904C4841F6F0
:1045A00071333B6405F0F2FCB9F1000F01D0C7F89C
:1045B00040800223636747483F4C05F09FFD05F0AC
:1045C00039FE06F065F8276C41F67133236405F077
:1045D000DDFC0FB100232364364F3D487B6AD4F8DD
:1045E000409043F0405841F67133236405F0CEFC0F
:1045F0003C46B9F1000F02D02F4B00221A64344818
:1046000005F018FEC4F82480D4F8C83043F0010344
:10461000C4F8C830304BB26A9A653520002308A927
:1046200006AA099305F024F830B19DF81830042B40
:1046300002BF089B18680990099BD80316D5002370
:10464000254A916D0CAA99540133062BF8D19DF897
:10465000353043F060038DF835309DF8363043F047
:1046600001038DF836301D4B5A603FE02C2008A91D
:104670000DF1190204F0FCFF002837D00CAC0899AA
:104680009DF81920204606F0DDFE3C2008A90DF11A
:10469000190204F0EDFF9DF8363008B3089A12783D
:1046A00062F300031EE000BF00300E40B081E00F57
:1046B0009407C64300400E4000000E400148E80148
:1046C000A004C8432000050007AD0AD047A002009F
:1046D00000F049020005080000500840B004002026
:1046E00060F300038DF836306F4B5C606F4B704A9F
:1046F0001A6000244FF480715A609A6099829C7508
:104700001C82DC756B4B6C4A1A605A609A60998205
:104710009C751C82DC75694B694FDFF80492C7F801
:104720008C4008221A70674B674A1A60674B684AC8
:104730001A60684B684A1A60684A7A60684A694B2E
:104740001760694A3B601360BB6A684A7C65A34294
:1047500008BF1346664ABC6513606423A7F844305B
:10476000A7F84630A7F84830A7F84A30A7F84040E5
:10477000A7F84240A7F84C30A7F84E304FF6FF7329
:10478000BB82112005F01EFC042840F0D58203F006
:1047900057F9284604F0C2F9564B574AC3F844214A
:1047A00048F2E672C3F838214FF40862C3F83421A6
:1047B000524AC3F8A0209DF87930012B504B05D107
:1047C0009DF87820012A9CBF28221A654AF63F42AC
:1047D0009A604C4B474CDFF84C814FF0C0729A62A4
:1047E0000023C4F8FC30484BC4F89C30474B7F2270
:1047F0001A6003F1007323221A6003F54153343326
:1048000003221A604FF40023C4F894304FF0010AD9
:104810004023C9F800A0C9F800304FF46073C8F80D
:10482000003003F077FEC8F800A023465C68DFF88C
:10483000C480C4F30364002CF8D101234FF004506A
:10484000C8F87C003249C8F8803040F6187206F08B
:10485000F9FDDFF8D4A02F4BC8F860309AE80700C4
:1048600085E80700214684222B4806F04BFE95E898
:1048700007008AE8070021466422284806F042FE25
:10488000C8F88840C8F88C40C8F89040736D32680A
:10489000D9B2FF29C2F3074348D05AB2013204BF4C
:1048A0009021192344E000BFB0040020C817002065
:1048B000F8070020B0170020340100203419002030
:1048C0001C060020401B0020FCB500003819002009
:1048D000C8B50000301900208CB60000B8040020D4
:1048E00014190020B159000018000020B95F000021
:1048F0003C00002000400840C0E653517A27000FDA
:104900000030084000700840806D63032430084484
:1049100000B80000B80F00217C0F0021180F002103
:10492000944008460C400846E00F002190211923CE
:10493000C14A02205BB293FBF0F30B44D3742323F0
:104940005374BE4B90744FF603721A6003F10073F8
:104950004FF0000AC3F800A04FF08043C9F80030C0
:10496000B74BB84A1A60B84BB84903221A6059606D
:1049700040F6FF715962B64B1A80B64BB64AA3F89F
:1049800000A0B64BC3F800A05A604FF400525A6220
:10499000B34BF0221A6003F10073A0221A60B14BEE
:1049A0004FF0010BC3F8B8B005F0CEF8AE4BDFF80E
:1049B000E0C2C3F800B0AD4BAD48C3F800B0AD4B9A
:1049C000CCF80030CDF808C002F0BCFE4FF4FA611C
:1049D0004FF47A74B0FBF4F8A74801FB08F10A021F
:1049E00080184FEA11634FF000015941A34A002398
:1049F00006F04AFADDF808C0A0F58073CCF828303C
:104A000050EA0103824603D12B2005F0CBF8DA46A9
:104A10004FEA0823039300230293DDE9022304FBFA
:104A20000AF46008121843F10003104619462246A2
:104A3000002306F029FA924B1960924B4FEA0A6262
:104A4000044618604FEA1A2AB8F1000F06D12B204D
:104A5000029205F0A7F8029A4FF001084FF47A711C
:104A6000A2FB01234FEA580001FB0A3312EB000AB4
:104A700043F1000B424650460023594606F004FA23
:104A8000814BDFF860A21960804B1860631E804C78
:104A900080482363804B4FF08052C3F880214FF051
:104AA00007081A6001236360CAF8848002F04AFE96
:104AB000C108030B7948CA0580184FF0000159411D
:104AC000774A002306F0E0F9764B18604EF6602036
:104AD00002F078FD744B404218624146734802F080
:104AE00087FD734B6367734AA3F52003C4F88430D2
:104AF0004FF0000313704FF40023C9F800306E4BE1
:104B0000D3F8C81041F0CC008842904640F03B8773
:104B1000DAF80C20D10700F13687D3F81031C3F34F
:104B20000823002B40F02F87EFF3108072B6634B01
:104B3000634AD3F818E0A3F5C0434FF06054D3F8AC
:104B40008410146002F100724FF00064146024229B
:104B5000C3F884205B4A042414604FF480429A66B0
:104B60004FF480525A62584B1A6E5204FBD51A68A1
:104B7000D405F8D54FF480429A66DFF86CC1D3F8BB
:104B800088401E944FF0040ACCF800A0C3F88410AB
:104B90004A49C1F818E09A6605F0F4F9A4B24FF654
:104BA00005034FF60402944208BF1C46384B9C652F
:104BB000012388F80030454B186802F007FE0021F9
:104BC0004822434806F09EFC3F4B424A60210620A3
:104BD000596410600022C3F884203F4B4FF080528C
:104BE0001A6003F5FC5304334FF400121A604FF0BF
:104BF00060521A601B4B40F6FF725A625A6503F10D
:104C0000C063A3F6BC73354A196040211160D7F820
:104C10008C20334912F0080F4FF0080014BF1860C1
:104C2000086012F0010F4FF0010014BF1860086017
:104C300012F0040F5AE000BF7C0F00217C000844F2
:104C400094120020957C0000301008406809002074
:104C50004C1200209A120020B80600209010084044
:104C600040000844001008400C400844C8400E466C
:104C7000000406000011010020A1070040420F00BF
:104C8000401200203C12002004090020FC080020F3
:104C9000005008406051070000E100E0B2E60E005D
:104CA00065CD1D0028120020900F00215006002025
:104CB0000300C0004412002000400E400060084085
:104CC000186008440040084600000840200000200A
:104CD0002C0F002170000844944008448840084488
:104CE00044000844004008400040084414BFBA4C47
:104CF000BA4C4FF4007012F0020F20604FF0020027
:104D000014BF18600860B64BB64C12F0100F14BFF9
:104D100000221B22DA6403F0FDFBB34BD3E9000150
:104D200040F0C05041F00401C3E90001AF4B1A68E4
:104D300002F03EFB03F0D6FBDFF80483AC4B636567
:104D4000002704F10C0AC8F80040A765A64C03F040
:104D5000E1FB9FA1D1E90001D4E90023002319431D
:104D6000A24B02F0010210431A68C4E9000102F0EC
:104D70001FFB03F0B7FB504601F07EFB9D4BD8F8BC
:104D800000004FF0010A08221A60C3F800A003F5E2
:104D9000BF4358334FF400721A60974B02221A60D7
:104DA0008F4B1B22DA6464239422A0F84430A0F8CD
:104DB0004A309623A0F84C20A0F84830A0F8407064
:104DC000A0F842700721343002F012FCD8F80040FD
:104DD0008A4BE362276303F071FC04F10C0B01467C
:104DE000584604F013FF4FF00063C9F80030237BEE
:104DF000834A43EA0A0323735368D8F8004023F038
:104E00000F0343F0030304F10C0004F134097D4C5B
:104E10005360394601F0FCF902F012FE0C222046E4
:104E2000394606F06FFB784B706AD3F88821774ECD
:104E300000EA0A0080EA0A0002F48003184340F006
:104E40003584734B1A689B88B380326004F0BEFDD2
:104E50000A20494604F042FD3378022B15D123681D
:104E600023F0804323F0170343F0804343F02003F3
:104E70002360684B4FF4EE421A6003F100734FF465
:104E80008A421A6043F804AC2CE0012B2368624F7D
:104E9000624E63486349644A23F0804323F017035A
:104EA0000FD143F003032360072303243B603460E6
:104EB000036006230B605D4B13604FF440425C4B74
:104EC0000FE043F0804343F01403236007230424DE
:104ED0003B603460036005230B60C0231360554BB7
:104EE00081221A60002004F071FD534B03221A60E6
:104EF00004F0CCFC514BD8F80000B3F9002047F681
:104F0000FF718A421C4604D0002105F0DBF90146FE
:104F100000E0FF21D8F80000494E0C3001F078F98C
:104F2000646806F1080A3CB9504605F03BFAB37BC9
:104F300064F30003B37307E02068B060A288A3792C
:104F40008AF80630AAF804203E4A3F4C3F4F404EB4
:104F50002023A8F81430002182F80133204682F87B
:104F6000033382F8053382F8063382F8043382F87B
:104F7000073382F81C33602206F0C4FA3548364BFA
:104F800084E80900252363720123237200233B6018
:104F90000AA91B230DF11A023620338004F068FBA6
:104FA000392008A90DF11B0204F062FBB9460DF18E
:104FB000580B002852D09DF81B200899202A28BFA2
:104FC000202258468DF81B2006F03CFA87E000BFEF
:104FD000081B881A040000001C6008461C60084476
:104FE000000008401C06002028190020201900207D
:104FF000081B8802440008444400084628CD0000ED
:105000007C0F0021E00F002100400E4030120020F4
:10501000C2B500002441084400410844004108464C
:105020000C4108440C41084608410844C1004000B6
:10503000044108440841084658410844B00400208F
:10504000E418002000E100E008090020F407002037
:10505000E4040020D6BE898E55555500494B0A9967
:1050600018681B7916908BF8043079B19DF81A20D6
:105070001B2A28BF1B22531D8DF81B300DF15D002C
:10508000531C8DF85B3006F0DDF90FE00E238DF830
:105090001B300A238DF85B303B4B1A68CDF85D203E
:1050A0005A681B7ACDF861208DF86530284605F0E6
:1050B00079F9364A9DF81B3012882BF8032026A96F
:1050C0009A1C51FA82F2002102F8401C2868A98833
:1050D00042F83F0C093322F83B1C8DF81B303A2074
:1050E00008A907AA04F0C4FA58B19DF81C20089931
:1050F000202A28BF202228468DF81C2006F0A2F97D
:1051000008E0234B1A889B78ADF87820AB70032316
:105110008DF81C301F4FDFF88CC0CDF808C097E821
:1051200003000023CCF80030CCF804301A4B83E89D
:105130000300184603F022FB07F1080292E803007F
:10514000164B102283E8030018461A7203F0ECFA9B
:1051500007F1100393E80300114A022382E80300D9
:1051600007F118011372D16013828DE80A0002F171
:10517000140006CA03F0B4FA0A98A8B19DF81A10F0
:1051800014E000BF87C700008DC7000097C700006C
:105190009AC700002CB500009004002014050020E0
:1051A000E804002028170020B5480921B54F03F076
:1051B000F7FA97E80300B44B83E80300184603F0BE
:1051C000DDFA07F1080292E80300B04B082283E8F9
:1051D00003001A72AE4905924FF6FE721A82D96028
:1051E000184603F0A1FADFF80CE307F1100393E887
:1051F00003000C238EF80830A64BCEF80C304FF687
:10520000FE738EE80300AEF81030704603F08CFA9F
:1052100007F1180103C9A04B4FF0020283E8030015
:105220001A729E49059AD96018461A8203F07CFAD0
:1052300007F120029A4B92E803004FF002021A7223
:10524000984ADA6083E80300012218461A8203F0C4
:105250006BFA954B07F1280292E803004FF0020227
:105260001A72924ADA604FF6FE7283E803001A82DD
:10527000184603F059FA30378D4B97E803004FF08A
:1052800002021A728B4ADA604FF6FE7283E803005C
:105290001A82184603F048FA874B029A1A604FF6B2
:1052A000FF729A809DF81B20202A05D8931DA373B6
:1052B0008248594606F0C6F89DF81C20202A06D8D8
:1052C000931D84F836307E48294606F0BBF804F07A
:1052D000CFF8237B98F80E1043F001032373637B10
:1052E00001F0010103F0F00361F386136373A37B04
:1052F00013B9744B06229A73734BBAF80420DAF888
:1053000000009A8094F835201860042060F30302AE
:1053100061F3861284F8352094F836200F3B12B9D9
:10532000062283F83620694BDAF80000BAF8042028
:1053300018609A8000F0FAFC654B1B78002BFBD0BC
:10534000EFF3108472B6002213460DF11D0161487F
:1053500005F03CF9204604F015FE9DF81D3013B110
:105360000023C9F80030D9F80020EFF3108472B69A
:10537000594F5848C2F501730DF11D013A449BB2D3
:1053800005F024F90546204604F0FCFDD9F800009C
:1053900028440328C9F800003D46CDD9B7F800B02D
:1053A0000BF104039842C7D300F27C817C88042C63
:1053B00010D0062C40F0768112A80021102206F0B1
:1053C000A1F8464B12932046022312A9139304F02E
:1053D0002BF967E1424A3B7942494FF4804005F09E
:1053E0003BF83B794FF0000A0BF1FF32082BA6F88F
:1053F00002A092B200F00C8109D8042BDFF8F880EB
:1054000039D0062B7AD0022B40F0B7820EE0102B59
:1054100000F00A8103D80A2B00F0C680ADE2122BFF
:1054200000F0C680522B00F0DC80A6E2022A40F099
:10543000A8824FF480402C492C4AB7F8053005F07B
:105440000BF8B7F805402849294AB4F5007F28BF72
:105450004FF400744FF48040234604F0FDFF002118
:10546000032302200A4688F80030A8F8014003F020
:1054700077F8348016E1042A40F081821CE100BFF5
:105480008DC7000048B50000C4040020C4050020FA
:10549000D16B0000216F00006C0500204BC700009D
:1054A0009C070020C0B5000034020020016F0000FE
:1054B000DC0000205D6B0000181200201D09002098
:1054C0004509002008090020170900203F09002095
:1054D000FC180020B01700208C02002010000020D3
:1054E000FDB600009EC70000B4C80000E5B600008D
:1054F00004B6000044070020A4120020B7F80720DB
:10550000B7F80530BB49ABF10704A4B28DE814002D
:105510004FF48040B84A04F09FFF0B3507F1090CA7
:105520004FF0020BB7F80500B7F80710CDF848C0E8
:10553000009501948DF84CB012AB0CCBCDF808C09F
:1055400001F092FE4FF6FF75A8420446DDF808C050
:1055500005D17B68A94AC3F30F23538007E1CDF837
:1055600038C08DF83CB0CDF800A0CDF804A00130D3
:105570000EAB0CCB294680B201F076FEA84207465E
:105580001CBF00F1FF37BFB2234600974FF48040A5
:105590009B499C4A04F060FF072388F80030A8F874
:1055A0000140A8F8037071E0022A40F0EA81E0E0CF
:1055B000ABF10304A4B2B7F80530934900944FF45B
:1055C0008040924A04F048FFB7F8050001F026FE3B
:1055D000002800F0FA80037B1A0700F1FC80032406
:1055E000F4E0ABF10304A4B2B5F8053086490094A9
:1055F0004FF48040864A874F04F02EFFB5F805002F
:1056000001F00CFE00284DD0037B5B074AD543E038
:10561000ABF1050B1FFA8BFBBBF1020F00F02781EA
:10562000BBF1100F21D122E1ABF1050B1FFA8BFB6F
:10563000BBF1020F00F04C81BBF1100F15D147E117
:105640003388013BADF82C30B8F8050012A90BAA3D
:1056500002F09EFF0446002800F0A680D8F804302F
:10566000664AC3F30F235380E4B13F7975886A4AD1
:1056700000953B4601944FF48040684904F0ECFEED
:10568000674B01221A705F705D801C71002104203D
:105690000A4602F065FF05E0B7F80500F91D22464D
:1056A00002F09DFF0023C9F8003045E60323337064
:1056B0005C4BFF221A701DE4B7F80720B7F80530DD
:1056C000594900924FF48040584A04F0C5FEB7F89B
:1056D00005401FFA84FA5046254601F09FFD002838
:1056E00043D0047A47685249CDF800A0022C14BF79
:1056F0004FF0020B4FF0010B5B464FF480404D4AD8
:1057000004F0AAFE052388F8003088F801B0A8F854
:10571000025010E0BDF81E40474A00942B464FF45B
:10572000804039490B9F04F097FE3D4B09221A70C7
:10573000A21C5A705D80032014E0BDF81E403F4A51
:1057400000954FF48040434601943D490B9F04F07F
:1057500083FE334B11221A70221D5A70A3F8028067
:105760009D8005203946224693E7244B5C800A241D
:105770007BE74FF480403349334AB7F80530DFF810
:10578000948004F069FEB7F8050001F047FD28B1E8
:10579000037B99073FF554AF022400E001247B68A6
:1057A000C3F30F2373805FE7BDF82C502749284AC5
:1057B000129F4FF480402B4604F04EFE184B0B22F4
:1057C0001A70204639462A4663E701247B68C3F3F2
:1057D0000F23738049E7DFF83C80B7F805002246C5
:1057E00008F1070102F0FBFE044698B3D8F8043034
:1057F000EDE700BFD5C7000061C70000E40400204A
:10580000FEC70000E1B5000032C800001BB7000071
:10581000F4B600008C020020D0B5000080C8000063
:10582000A412002044000020C0C8000074C700007B
:10583000B1C7000028C7000005B700001BB6000074
:1058400056C80000DEC8000043C7000023C800009F
:1058500018C700004FF480404D494E4A04F0FCFD4B
:105860004D4B13221A7020462146224611E7B5F807
:1058700007204A4CB5F80530494900924FF4804062
:10588000484A04F0E9FD04F1090312938DF84CB085
:105890000023B5F80500B5F807100093019312AB8B
:1058A0000CCB01F0E1FC4FF6FF739842054637D070
:1058B00033880BA9043B0DF11E02ADF81E3002F037
:1058C00067FE044600283FF425AF374B5D80CBE6EA
:1058D000B5F80720314CB5F80530314900924FF446
:1058E0008040324A04F0B8FD5FFA8BFBB5F8050042
:1058F000B5F807108DF84CB004F1090C0025CDF86F
:1059000048C00095019512AB0CCBCDF808C001F052
:10591000ABFC4FF6FF7A50458046DDF808C004D155
:105920006368C3F30F23738021E7CDF840C000956F
:1059300001958DF844B008F1010010AB0CCB514635
:1059400080B201F091FC338850450546A3F106036F
:1059500018BF00F1FF350BA940460DF11E0218BF1C
:10596000ADB2ADF81E3002F013FE044600283FF43D
:10597000E4AE0D4BA3F8028076E6062475E61C46DD
:1059800073E6042471E6142004F00CF9FFF710B953
:1059900050C80000D4B60000A41200208C020020E1
:1059A000C0C8000053C70000E404002036B6000061
:1059B0002DE9F04FA24C8BB04FF4867011461F4674
:1059C000164604F003FD2369A0462BB94FF48370FB
:1059D000314604F0FBFC9BE1002F08BF082E40F08D
:1059E000B8804FF48170002104F0F0FCEFF31088D0
:1059F00072B69449944BB1F800E0944E1F6804913C
:105A00000EF03F0000F03C0232440593DFF858925C
:105A10003FB9B9F800307344033B03F03C039C19D1
:105A200001E027F00104201A801BB9F8007048BF7C
:105A30004030B84217DA9442854F03D1FA6B1FFA0F
:105A400082FA07E0221FB24238BF04F13C021288FA
:105A5000C2F30C0AD7F88070C7F30C07B84217DA04
:105A60002088070401D540464FE0A77807F00707D4
:105A7000CAEB0005052FC5F309051BD901F0C2FFCC
:105A8000281A85B2280415D5042004F08BF811E0FB
:105A90006F48856B00F54050CAEB0505C5F3090555
:105AA000406835B9C0F3036003280CBF08270027FE
:105AB00000E00827674BCAF3080003444046ADB234
:105AC000029304F05FFA3CB379070BD0EFF3108038
:105AD00072B66149614A0C6061491580A1F800A065
:105AE00004F050FA022C79D8EFF3108072B6049BC0
:105AF0001F8807F03F0263D0544BB9F80010A21A78
:105B0000D21A48BF40328A4202DB04F03BFA03E07B
:105B100004F038FA002C61D1494C019B069363686C
:105B2000039A5B7A8DF81C309DF81E308DF81DB0FD
:105B300062F300038DF81E30029B0993ADF82050EC
:105B40002369022006A9984720680C3000F034FB36
:105B5000DEE0002F08BFB6F5002F07D140F201109C
:105B6000002104F033FC2369012026E006F4C05232
:105B70000023134308D04FF481704FF4807104F078
:105B800025FC2369032018E006F440720023134328
:105B900002D04FF4817006E006F020720023134318
:105BA00003D040F20110012102E04FF4837031462E
:105BB00004F00CFCD8F81030FF2000219847A7E033
:105BC000059B196839B9B9F800303B44033B03F031
:105BD0003C03F41890E721F001048DE7B4F800804D
:105BE000A37818F4004F97D103F00703052B93D93E
:105BF000DA1F53425341039301F004FFC7B2002F51
:105C000000F08280124B1B6B03F007030633012662
:105C10009E40A8F10601731E89B21940114B5B68C2
:105C2000761A43F00058B74206A841441ED93246BE
:105C300005F008FC06AB98194146BA1B17E000BFF7
:105C4000E41800209A1200209C120020501200201C
:105C50000010084068090020740B0020F80800209C
:105C600000090020301008404C1200203A4605F090
:105C7000E9FB29499DF818B00F6828499DF81A904A
:105C8000CE6B9DF81B409DF81C809DF81DA0C6F3AF
:105C90000110360C00FB066642F2107086423FF699
:105CA0003BAFC96901F01F0101314FEA08480E44BA
:105CB00048EA0A6801F062FE194B48EA090848EA16
:105CC00004211C68174B1B684FF000484FF0000977
:105CD000E3FB01894A460023E4FB01237C6B4FF47C
:105CE0007A7304F5FA74B4FBF3F4121B0E4C14230C
:105CF000B0FBF3F304FB06360A24B0FBF4F0B6FB6A
:105D0000F0F0131A019307E74FF0800B019703E7B8
:105D10000BB0BDE8F08F00BF1419002000600840F0
:105D200004090020FC080020A08601002DE9F041B4
:105D3000384C3848637A0133DBB2272B88BF2523E0
:105D4000637203F001FCA17B257B334C33480231A5
:105D500003F0D6FB6368324A5B7A05F001052846FA
:105D600012F8038003F098FB2E4B2568D3F8883097
:105D700013F0A00F05F10C06274641D130464146ED
:105D800003F044FF00283BD1304602F043FC0028DA
:105D900036D1B5F84A3042F2107293429CBFC3F537
:105DA0001C50103001F070FE8046EFF3108672B682
:105DB0001D4CD4F8A430DB071FD4E36813F00605AC
:105DC0001BD102F06FFB194BE366194B25670822C4
:105DD0001A6003F580531C3301221A60124B4FF4F2
:105DE0000061596640F6014119670320414601F000
:105DF00083FE40B90E4B80221A60304604F0C2F890
:105E000003F036FB94E7304604F0BCF8094B3B61E5
:105E1000BDE8F08108090020E418002015090020E1
:105E2000D7CE0000004008400050084000000101AB
:105E300088400844395E000002282DE9F3410D46F0
:105E40001ED002D8012807D0A5E0032800F09C80CE
:105E5000FF2800F099809EE0514C237B980707D5DE
:105E600003F006FBFFF762FF237B6FF3410323730D
:105E7000237B990700F18A80DA0700F18D8085E0A5
:105E80008B79CC68DB077FD5227802F00F07032FD0
:105E90005FD0052F78D143498B7B03F00103B3EB2F
:105EA000D21F04F1080077D10831062205F0BAFAB2
:105EB0008046002870D103F0DBFA2E683A4D414647
:105EC0005C22284605F01EFBAB7E2F8343F02003A7
:105ED000AB76627E237E43EA0223AB84627F237F1C
:105EE00043EA0223EB8494F82330C3F3040385F8D8
:105EF0004F3094F82330C3F3421385F8503004F147
:105F00001E001B232B8503F0F5F9D4F80E30E27C3C
:105F1000EB60A37C2E6043EA0223227D607D43EA8E
:105F200002432B61012795F84F30AB722F75E18A40
:105F3000394403F0CBF902F0A1FEEA8CAB8C1B498B
:105F400000924FF400601A4A04F086FA194B1F7051
:105F500022E014498B7B03F00103B3EBD21F04F161
:105F6000080019D10831062205F05CFAA0B90C4CE2
:105F700094F8361004F13500023103F0C1FA237BA6
:105F800043F00203237307E003F072FA02B0BDE8A6
:105F9000F041FFF7CBBEFEE702B0BDE8F08100BFE5
:105FA00008090020E41800203017002071C9000003
:105FB0008EC90000FC180020704700002DE9F8434E
:105FC000734B5F68734BD3F8A090D3F8A48004465A
:105FD00000F12805002947D00A68531C44D0C2F3B9
:105FE000026E6D4EC2F3074056F82E6093B2012840
:105FF00043EA06030DD98E4602465E1A7644013AFC
:106000005EF804CFC6F800C0F7D101EB80010E1D89
:1060100028E0120F01F108064868072A22D8DFE8B5
:1060200002F00D04080B0F12171DC04303F180632B
:1060300004E01A68504001E003F1C063186011E009
:1060400001F038FD0EE00122824003F1C06303E05D
:106050000122824003F180631A6003E01A68024063
:106060008242FBD13146B5E703F010FC4B4B4C4A62
:106070009B691278C3F382139A4204D0494B294694
:10608000186803F02BFC424B5E68424BD3F8A0101B
:10609000D3F8A42049450AD043480378C1F3802EA1
:1060A0006EF30003C1F3C02161F341030370424565
:1060B0000AD03D490B78C2F3802060F38203C2F31B
:1060C000C02262F3C3030B70BE425AD01EB13368C4
:1060D0000BB1B06880B9EFF3108072B6334A136821
:1060E00023F00703136003F04DFF314B00221A60C9
:1060F0005A605EBB334633E02E4B2D4F07221A60A9
:1061000003793B70437993FAA3F1B1FA81F2202A23
:1061100008BF4FF0FF32D1B2CB4002F00F0242EA8B
:1061200003127A708379BB70C379FB7003687B605C
:106130000379184A01339361EFF3108072B61B4A5A
:10614000136843F00703136003F01CFF33683BB18F
:10615000326922B190681168D389526803E013460E
:10616000194618461A469BB2E26243F2C82293428D
:1061700028BF13462063A162E3862846072101F069
:1061800037FA237843F0020323700020BDE8F88338
:10619000EC0F0021000008409CC90000006008408E
:1061A0003900002018190020CC160020180F0021FB
:1061B000740F00210400084438B50C4BD3F8EC50A0
:1061C00003F18063EC334FF480641C60084B0020C3
:1061D000186004F051F8074B4FF400521A606A053A
:1061E00042BF03F1007398331C6038BD00100840B3
:1061F000740B00205410084408B590F86030032B4D
:1062000004D0084603F0E2FB002008BD022008BDD0
:1062100070B590F86030032B05460E4611D02971F9
:10622000416A61B103F0D6FC28B9686269882846E2
:1062300003F0ECFC03E028463146FFF7DDFF0020C9
:1062400070BD022070BD00001C4B5B6803F07063E2
:10625000B3F1E06F30D010D8B3F1407F20D005D833
:10626000B3F1807F28D0B3F1007F04E0B3F1806FF9
:1062700022D0B3F1A06F17D11EE0B3F1206F11D07F
:1062800007D8B3F1006F0DD0B3F1106F0CD105201A
:106290007047B3F1306F05D0B3F1406F02D003E027
:1062A0000320704704207047054BDB6813F0060F8E
:1062B00014BF0420012070470220704700400840AE
:1062C000005008402DE9F047032800F2B780DFE8CE
:1062D00000F00B02060900242546012607E00024F1
:1062E0000125FAE7012400E0002425462646EFF3C5
:1062F000108872B6E6B9DDB9514AA0231360514B3C
:10630000D3F8A41011F0010F92462BD04E49012270
:106310000A604FF4006159664C490A604FF480529C
:106320005A661FE04A4B1B6803F00F03032B05D08E
:10633000484B5B68C3F30363032BF3D0002DDBD022
:1063400002F096F8444B01221A6003F17E437C333D
:1063500004221A603F4B5B6813F0706FCCD001F0E1
:10636000FDFAF7E7374F3D4BFB6600233B6702F032
:106370007FF83B4ADFF8DC90136843F0400313607A
:10638000384BFF221A604FF48073C9F80830042399
:10639000CAF80030002E4AD001F0F8F8222001F0AF
:1063A00065FB4FF480237B602023C9F80830274B1E
:1063B00001221A604FF480537B66002D33D02046B3
:1063C00003F05AFF284B01221A6004B3274BDA6E00
:1063D0009A6603F580431A6ADA6103F50053D3F82D
:1063E0008C20C3F88820A3F54053DA6F9A67A3F591
:1063F0000053D3F8EC20C3F8E82003F5C043DA6B70
:106400009A63A3F500531A4A5A6601F08FF8404682
:1064100003F0B8FD96B1174C206803F047FF002346
:106420002360BDE8F087404603F0ACFDF3E7002DA4
:10643000C5D14046BDE8F04703F0A4BDBDE8F087F4
:106440008840084400500840A4500844B450084410
:106450007C0F0021004008400C400846000001016C
:10646000180F0021004008440C4008440000084078
:106470005000F0026C0B002070B5037899070446B9
:106480003DD5426A002A3AD06FF341030370536945
:106490001B685A1C09D01A48D0F83C2199B2130C39
:1064A0001B040B43C0F83C3170BDD0E9122300221D
:1064B00003F00403134304D1037843F00203037091
:1064C00070BDEFF3108072B62569E36805F480357E
:1064D0002B43E36003F056FD00220DB9002300E0DA
:1064E0000423D4E9120102400B4052EA030106D012
:1064F0000449A4F10C000968BDE87040084770BD6C
:1065000000400840180000202DE9F84398464369F0
:10651000012B06460D46174600F09B80FFF794FEC0
:1065200001280DD1BB897C68BF68ED1AADB23F2D43
:106530000ED9AA09BB0102FB034405F03F0507E0A1
:106540000120FFF7BFFEFFF77FFE0128FBD1E9E73F
:10655000554B1A68A242994606D1544B1B68BB4260
:1065600002D1B8F1000F5DD001F0E8F9804601F0EA
:10657000E5F9002870D04E4BB3FBF0F39C426BD38F
:106580004C4BB3FBF0F0844266D8B8F1010F4FF0EA
:10659000100300F08280484A1360B8F1000F7FD0EA
:1065A000C9F8004004FB08F4444ADFF828910023AE
:1065B000E004610B04F068FCC9F82C00D9F8303015
:1065C0003E48C3F31303A3FB00014FEAC842002374
:1065D00004F05AFC3A4B394A1860344BF8041F60F7
:1065E000A0FB08017B0B08FB0311002304F04CFC0B
:1065F000344FC9F83C003B7823B9D9F8503003F048
:106600003F033B70304BD3F894305A0628D401F046
:1066100013F92D4BD3F83831DB0654BF2B482C48E7
:1066200001F0D4F83046FFF727FF274B5B68C3F330
:106630000363042BF9D00A2BF7D013B10F2003F01A
:10664000B1FA244B9D6303F5805380229A6001F0D8
:10665000F3F80020BDE8F8830E2003F0A3FA1FE052
:106660001D4AB4FBF2F240F24D5302FB02F14B43E0
:106670004CF20C6101FB123303F5C91303F55563AA
:106680001BB92B2003F08EFA01233978134A4A43B1
:10669000B2FBF3F30F4A1365B9E7114A13607FE7C2
:1066A0000220BDE8F88300BF381200204812002005
:1066B00000371789007DDAAC3841084600F04902FE
:1066C00024120020780B002000400840C0CF6A0050
:1066D000E06735000030084000366E018096980073
:1066E0003841084400000000734B2DE9F14F174674
:1066F000D3F800906EA3D3E9002302400B4013436C
:1067000004460D4600F0A68000F40020002150EA67
:1067100001026A4B18BF6A4AD3F8903018BF136061
:1067200004F48010002150EA01021CBF654A136086
:1067300004F080520023134309D0634B1B6803F01D
:106740007F43B3F1007F02BF604B02221A6004F066
:10675000C0520023134305D05D4E306803F0A6FD00
:106760000023336004F001020023134353D0EFF3FE
:10677000108072B65749D1E9002322F00102C1E925
:106780000023554A01231360544A936303F0FAFB34
:10679000EFF3108072B6524A504B56689B68C3F3B1
:1067A0008913990544BF6FEA83536FEA93531FFA25
:1067B00083F85368C3F30363023B012B07D8C6F386
:1067C0000366023E012E8CBF0026012600E0002653
:1067D00003F0D8FB0FFA88F313F5007F02D1002EE7
:1067E000D6D103E0002E08BF4FF47E480120A9F85F
:1067F0001280FFF767FD3B4B3B4E4FF400121A60CF
:10680000306803F053FD0023336099F80C3043F0F7
:10681000080389F80C30002205F00403134319D053
:10682000A24625F0040BEFF3108072B6D9F81C5085
:10683000D9F8183005F001052B43C9F8183003F0DA
:10684000A1FB00240DB9002500E0042544EA0A0458
:1068500045EA0B05D9E9152314401D4054EA050308
:1068600014D0224B2246196848462B468847144AC2
:106870004FF0FF331360134A04F00804002513603F
:1068800054EA05031EBF1A4B00221A60FB070BD502
:10689000184A002013681060174A012111701BB1BB
:1068A00001B0BDE8F04F184701B0BDE8F08F00BF60
:1068B00001001818040000001419002000500840BE
:1068C000140000201C000020280F00210040084672
:1068D0006C0B0020281900203C7008440070084010
:1068E0000040084018600844680B00201800002091
:1068F000740B0020700B0020790B002040F6280359
:106900001B68A3F50062B2F5605F07D21B6BA3F5AD
:106910000062B2F5605F01D2DB6B184740F20110F4
:10692000704740F6280310B51B68A3F50064B4F562
:10693000605F09D21B6BA3F50064B4F5605F03D2FE
:106940009B6BBDE81040184740F2011010BD38B5F0
:106950000C680D46A41A8118224604F07EFD2C60B6
:1069600038BD00002DE9F84F4C4C4D4ED4F8009046
:106970004C4B4D4FC9EB00054C483D609B1B0344FD
:1069800023F4FF6323F007039D428E469446A046FE
:1069900070D3474B9B6C9BB202EB09069B02AC1970
:1069A000A3F580539C4265D2B6F5806F01D982224F
:1069B00048E0DFF814B10BEB090004F043FD3D4B58
:1069C000C8F80060D3F800A09946BAF1000F1BD1B7
:1069D000D72E61D9384A0BF1C8030BF1D80B53F805
:1069E000041B42F8041B5B45F9D1334802F0D2FE88
:1069F00008B9842226E010223048FF2104F082FDED
:106A00002F4A05F1C803136006F00306A41B24F403
:106A1000FF6424F00704BAF1000F07D125F4FF60EA
:106A200020F00700C0F50061214405E0A2450BD22B
:106A30000AF50060CAEB0401FFF760FFC9F80040E7
:106A400010B185221F4B26E0D8F800201E49386877
:106A5000921BFFF766FFD8F800203B680F49921B96
:106A60000446134418483B60FFF771FF002CE8D13F
:106A7000BDE8F88F154B5B68B3F1827F114B09D2EB
:106A80001A78F444E64506D01EF8011BFF2918BF0A
:106A90008322F7E783221A70BDE8F88F14120020D2
:106AA00010000020BC000020D80B002023D90000DB
:106AB000B081E00F800B002000120020BE0E0020ED
:106AC0008C0B0020F50D0020F60D0020E80D0020B5
:106AD00070B51D4D2868002834D11C4C1C4A1D4B34
:106AE000141B1C4424F4FF6424F007041A4A936C1A
:106AF0009BB2B4EB832F24D2666B9EB1936C9BB296
:106B0000B6EB832F0ED2926C06F1380392B2B3EB40
:106B1000822F07D8304602F03DFE18B1F36933F0FA
:106B2000080309D104F1C80002F034FE30B1D4F8F2
:106B3000E43033F0080301D02C6002E004F5006477
:106B4000D4E7286870BD00BFFC11002010000020B1
:106B5000BC00002023D90000B081E00F70B50E46C4
:106B6000B0B9FFF7B5FF0446FFF7B2FF60B1094DBA
:106B700004F1C80304F58074186859682A4603C2F2
:106B80000833A3421546F7D1034B33600423B38087
:106B9000002070BDA00B0020C00B002040F6280391
:106BA0001B68A3F50062B2F5605F01D25B6A18470B
:106BB0000020704740F628031B68A3F50062B2F579
:106BC000605F01D21B6A18474FF481707047000064
:106BD00001282DE9F74340F009818B88012B40F013
:106BE00007810B681B7803BB934A1360934A1360B9
:106BF000934A1360934A1360934A1360934A137045
:106C0000934A1360934A1360934B1A78022A1C46E6
:106C100001D1FFF7CFFF01232370904B00201870A4
:106C20008F4B18708F4B187002E1032B40F0C4801B
:106C30008C4B894D1878002840F0BB802B78002BB6
:106C400000F0B080814B1B78082B4ED17A4A136834
:106C500090464BB940F628042368A3F50063B3F5CA
:106C6000605FC0F0C98045E013F003071CBFC7F1A7
:106C70000407FFB2FE18B6F5806F00F297807A48DD
:106C8000DFF8C4911844FF213A4604F03BFC704AF7
:106C90006A4B14681B68D9F80010C8F800601C44DF
:106CA000344424F4FF6424F00704A142164609D2B8
:106CB00001F50060611AFFF721FE08B1852078E038
:106CC000C9F80040D8F80010306801F0C7FE3368FA
:106CD000D8F80020584913440446DF1B6248376047
:106CE000FFF735FE002CE9D1B4E7002B5CD05B4BFD
:106CF0001B780BB980205CE0564E336843B9514B8A
:106D00005A4918681022FFF70CFE0028D6D150E02F
:106D100013F003021CBFC2F10402D2B2D418B4F5BE
:106D2000806F43D85248464F1844FF2104F0EAFBD5
:106D30005048514A51493B683460121A0A4422F4BF
:106D4000FF6222F00702934232D31C444C4B9B6CEF
:106D50009BB29B02A3F580539C4229D2DFF8E880C6
:106D600024F4FF64D8F8001024F00704A14208D2EC
:106D700001F50060611AFFF7C1FD00289ED1C8F837
:106D800000403B4932683868FFF7CBFD3B6832680A
:106D900030490446134436483B60FFF7D8FD002CC9
:106DA0008CD1ACE7812004E0842002E0822000E066
:106DB000832000232B703BE0042B1BD1314C324A43
:106DC00032494FF40060132303F046FB13230221E2
:106DD00020466370217002F023F82D4A2D4B128952
:106DE00005329A802C4A1A6062789A7100201FE05E
:106DF0000D201DE006201BE001F04EFE00287FF470
:106E000079AF23680190A3F50062B2F5605F04D307
:106E1000134B01221A700020CBE71B6BA3F5006215
:106E2000B2F5605FF4D29B6901A801219847EFE7B2
:106E300003B0BDE8F08300BFF81100207C0B0020F8
:106E4000D80B00208C0B0020800B0020101200209B
:106E5000880B002014120020F40D0020840B002069
:106E60008C170020F50D0020CC120020001200200D
:106E7000F60D002010000020BC00002023D90000E7
:106E8000B081E00FA4170020A4C90000B4C900001D
:106E900030170020901700208593000040F628034B
:106EA0001B68A3F50062B2F5605F01D2DB69184789
:106EB0004FF481707047000028231A68B2F5006F04
:106EC00002D30023037014E040F628031B68A3F5E7
:106ED0000061B1F5605FF4D21168074A9142F0D1C8
:106EE0001968064A9142ECD1012202709A689B69A6
:106EF00042608360704700BFAD1007B007B0CD5E41
:106F000010B50C4630B90448FFF7D6FF034B236099
:106F10000423A380002010BDDC0D0020E00D002024
:106F20002DE9F04F01288BB040F033818A88002A88
:106F300000F03181AB4E096896F800B0BBF1000F4C
:106F400000F02B81A84B1C781F46002C40F0468196
:106F5000A64805788046002D40F04081A44D286861
:106F600002EB0009B9F5806F02D982241C7035E16B
:106F7000DFF890A2504404F065FABBF1020FC5F8A7
:106F8000009048D0B9F1030F40F22881DFF88892D1
:106F90004846FFF791FF99F80030DAF800000290B8
:106FA000012B029A934B2CD19A422AD1D9F808107E
:106FB000C90326D502233370FFF770FF40F628037C
:106FC0001B68A3F50062B2F5605FC0F0E88003982B
:106FD000894B8A4A186020F4FF6323F007034FF4BB
:106FE00000611360FFF78AFC08B1852310E0FFF70A
:106FF0006FFD80B14FF40061FFF780FC0028F4D1F1
:1070000009E09A4214BF842386233B703B7813B176
:107010003B701C46E2E03378022B40F0DF80784B77
:10702000DFF8E4A11A7812F0F70F994633D1724BCA
:107030002E681B6806F0030B1E44DAF800301E446D
:107040006E4BCBEB060626F4FF66196826F00706A2
:10705000B14209D201F50060711A0193FFF74EFCAD
:10706000019B002857D11E602968DAF80000CBEB9D
:10707000010101F0F3FC2A68DAF800305C49CBEB3F
:107080000202064613445F48CAF80030FFF75FFC6F
:10709000002E40D120E0DAF800202B681A44CAF80C
:1070A000002040F628021268A2F50061B1F5605F89
:1070B000C0F0818040F2022652484D492A68FFF70D
:1070C00046FC40F203239E425FD040F201239E42E1
:1070D00002D080243C7081E099F80030002B7DD1F3
:1070E000DAF800307F2B79DD03A802A901F090FCCB
:1070F00010B9434B039A1A7099F8003013F0F70F48
:107100006CD040F62806DAF800303268A2F500614B
:10711000B1F5605F01D38524DCE7126BA2F5006155
:10712000B1F5605FF7D20020D2F80CC0354A0146B5
:10713000E0470028EFD1344BDFF8D8901B682B6074
:107140002E4B1860314BC9F804303368A3F5006248
:10715000B2F5605FDFD29B6A2D484FF4007198470B
:107160000028D8D13268224BA2F50061B1F5605FEA
:107170001B682CD340F2022622481D492A68FFF7DB
:10718000E6FB40F203239E421CD1012388F8003025
:1071900024E0002422E00D2420E081241EE01B6B6B
:1071A000A3F50062B2F5605FBFF411AF9B6803A95D
:1071B000002098470BE7D66A15481649114AB04790
:1071C000064679E740F201239E4282D106E0D66A64
:1071D0000F480C4A4946B0470646CDE720460BB05B
:1071E000BDE8F08FF40D0020F50D0020840B002089
:1071F000F8110020EB17A6037C0B0020800B002069
:1072000010120020CC120020880B002065690000BD
:10721000DC0B0020900B0020E80D0020E0B1114BAA
:107220001A689188814219D39988814281BF0121CE
:10723000126899809A6099889A6842B1814202D115
:1072400099809A600BE00131126889B2F5E74FF638
:10725000FF719A60998002E0024600E00022104629
:10726000704700BF181200202DE9FF410A9EBDF8AB
:107270002C70044688468DE80C00FFF7CFFF0546CA
:107280001DB3444521D82B7A9DF8042068680099E5
:107290009A4216D104F0C6F898B90EB9204622E0F9
:1072A0002B69AA8AA3B14FF6FE7E724510D10290D7
:1072B000ADF80C0002A9984718B90299BDF80C2046
:1072C00041B901342D68A4B2DAE74FF6FF700AE045
:1072D0001946F5E7BA42F4D130463A4604F0A2F82E
:1072E0000028DBD0EDE704B0BDE8F0810C4BD3F80B
:1072F000942002F00702022A03D004D3042A04D9FE
:1073000001E0084803E0084801E04FF40040D3F8EA
:107310000031C3F304230133B0FBF3F0704700BF27
:1073200000400E4000F04902C0EA210110B5046897
:1073300084EA010323EA020200F1806314401C6026
:1073400040F8042C00F1C0600A40026010BD704794
:10735000EFF3108072B6124B1978B9B9114BD3E91B
:107360000023002302F4105213430FD10E4B1022BE
:107370001A600C4BD3E90023002302F480721343FC
:107380000AD00A4B20221A6002F0FCBD074B1022E3
:107390001A600029F5D1ECE72022034BF3E700BF88
:1073A0009012002028190020944008449440084678
:1073B00070B5044616460D46FFF7CAFF04F0AA62F0
:1073C0000023134348F2020108BF4FF40041B20703
:1073D00048BF41F400514B480022FFF7A7FF04F4D7
:1073E00000420023134304F480324FF0000314BF23
:1073F0004FF480510021134304F010024FF00003BA
:1074000018BF41F48071134304F020024FF00003D1
:1074100018BF41F40051134304F040024FF0000341
:1074200018BF41F40071134304F080024FF00003D1
:1074300018BF41F48061134318BF41F40061324822
:107440000022FFF773FF05F004030022134304F446
:1074500000624FF0000314BF4FF48021002113435A
:1074600004F480424FF0000318BF41F4803113430D
:1074700004F002024FF0000318BF41F480111343DF
:107480004FF0000304F4003218BF41F4001113431D
:1074900018BF41F40021730748BF41F004011B48A5
:1074A0000122FFF743FF1A4B1A491B4816F0010F40
:1074B00008BF194604F080420023134318BF41F06F
:1074C00000710022FFF732FF04F00101134800228F
:1074D000FFF72CFF04F4802200231343104B1149C3
:1074E000114804F004044FF0000508BF194654EA9F
:1074F000050318BF41F480614FF4A022BDE870403D
:10750000FFF714BF6C0008408C6008402040084022
:1075100000187000001C7000685008403C70084063
:10752000090A0A090D0A0A09EC100840044B002256
:107530001A70044B197811B11A70FFF709BF704720
:10754000991200209012002038B50C4B1B789BB18B
:107550000B4B1C6DC4F30C0474B9FFF7E7FF094B28
:10756000094DD3E900012246012300F48050002197
:107570002B70FFF7B9F82C7038BD00BF99120020AE
:10758000001008402819002024190020EFF3108073
:1075900072B6094B5B68C3F30363032B01BF074A51
:1075A000536823F0F00343F0E00308BF5360044B3B
:1075B00001225A6202F0E6BC004008407C0F002124
:1075C00000000840094B1B6830B5C517A0FB03013C
:1075D00010F1807003FB051141F10001400E40EAFB
:1075E000C110803820EAE07030BD00BF28120020B2
:1075F000F8B50C460546002800F09B80E10758D5F9
:10760000C38A53B181684B4A521A4B4988881B1A66
:107610004FF47A7000FB032001E047F23050FFF78F
:10762000D1FF464B18616B8A53B1A968414A521A7F
:10763000414988881B1A4FF47A7000FB032001E04F
:1076400047F23050FFF7BEFF3C4B9860AB8A63B106
:10765000AA683848801A384A91884FF47A72591AC1
:1076600002FB01036A689A1A01E047F23052344B78
:107670001968D717A2FB012312F1807201FB0733AF
:1076800043F10003520E42EAC3122C4B803ADA60F7
:107690006B8B43B1284A9088181A4FF47A73584379
:1076A000A0F6C41001E047F23050FFF78BFF234BE8
:1076B000D861A2071ED5EB894FF47A70584323B1E5
:1076C0002B6803F51C5310331844FFF77BFF1B4B4B
:1076D00098612B8B43B1AA684FF47A7000FB0320AA
:1076E000A0F50350103801E047F23050FFF76AFF71
:1076F000124B586163071CD5288A30B14FF47A7356
:107700005843A0F50350103801E047F23050FFF71E
:1077100059FF0A4BAA8918604FF47A7050431C46EF
:1077200022B12B6803F51C5310331844FFF74AFFAE
:107730006060F8BD3CF6FFFF30120020900F002182
:107740002812002008B500F47813B3F5802F1FD05D
:1077500009D8BBB1B3F5003F32D1FFF7C7FD1A4BD3
:10776000D3F808311EE0B3F5002F17D0B3F5202F62
:107770001BD0B3F5C02F23D1FFF7B8FD124BD3F8C0
:1077800010310FE0FFF7B2FD0F4BD3F8003111E0DD
:10779000FFF7ACFD0C4BD3F80C3103E0BDE808401B
:1077A000FFF7A4BDC3F3082306E0FFF79FFD064BD8
:1077B000D3F81431C3F304230133B0FBF3F008BD55
:1077C000BDE8084002F09ABC00400E4038B5134BAB
:1077D0004FF400221A60124A1060124A12681D46C5
:1077E000D2B1114B114C1B6F00F5F42000F59070D5
:1077F000B0FBF4F4033CE4B203F00703A34202D06D
:10780000204601F0A5F90A4B1B782BB1094B4FF428
:10781000702224041A602C6038BD00BF94400846D2
:10782000200000208009C64300300E4040420F0077
:107830004412002094400844F0B5334A334D516857
:107840001068127A85B001AB03C331491A700C6815
:10785000304A3149936B096804FB0314136B13F42A
:10786000801F2E4B1B6804AA14BFE418E41A2C4B8B
:10787000B4FBF3F313442B4A13F80B6C04ABF44042
:10788000B4FBF2F21A442B6812F80B7C23B92B20BC
:1078900002F088F901232B602968234B43F6FF523D
:1078A0001A6004EB5102B2FBF1F2013A42EA0633EC
:1078B0001E4A43EA872313601D4AB4FBF2F302FB1E
:1078C0001344642254431B4A944298BF03F1FF338C
:1078D0005D08013D5C1C6408072D04F1FF3403D8EA
:1078E000072C01D81DB914B9102002F05BF9124B16
:1078F0004FF4EE621A602D0103F1007345EA04248F
:107900001C6005B0F0BD00BFC7C90000200000200A
:1079100048120020003008403812002024120020B5
:1079200040BE4025401B5F13A4400844A4400846C5
:1079300000F04902FFEF490230400844064B5B6B00
:1079400003F00700C3F3C50313F0070218BF504349
:10795000DB0818BF5843704700300840064B5A6890
:1079600002F07062B2F1C06F1A4602D1DB6BDB0627
:10797000F4D540239360704700400840204A936943
:1079800003F03001202910B50FD1C3F302441CB11C
:10799000C3F3C422B2FBF4F413F4C01F18BF640095
:1079A0006408032C28BF04240AE0936903F4E073FD
:1079B000402B02D0B3F5807F01D1022400E00124E6
:1079C000112002F09BFB0E490A6B93B233B1C00841
:1079D000C2F307425043B0FBF3F000E018468B6956
:1079E00003F03002102A07D0202A06D1C3F3C423A3
:1079F0000133B0FBF3F000E04008604310BD00BF6E
:107A0000006008400D4BDB6C13F0200F0CBF002012
:107A10000420D90644BF0230C0B21A0744BF023066
:107A2000C0B2590744BF0230C0B29A0744BF013008
:107A3000C0B2DB0744BF0130C0B27047000008404D
:107A4000094B08221A6001221A6010221A60802253
:107A50001A6040221A6020221A6004221A604FF431
:107A600080721A60704700BFC8400E46044BD3F8BE
:107A70009430002BBCBF034BC3F88000704700BF9D
:107A80000040084000000840084B1968084B30B51A
:107A90001B684FF000440025E3FB00452A46002305
:107AA000E1FB00231046194630BD00BF4012002004
:107AB0003C12002070B50F4DFFF7E6FFAC69296B53
:107AC000EB68DB0715D549088842064628BF0E46F5
:107AD000084DAA69A24238BF2D6BA2EB04033CBF3C
:107AE00001355B19B342F3D3834202D2C01A144664
:107AF000EAE770BD005008402DE9F047864614467D
:107B0000EFF3108072B6DFF888C14FEA0E139C4481
:107B10004FF4807A564B01250AFA0EFA022ACCF865
:107B20000050C3F864A000F09D809D69012A04BF45
:107B30006A1C89181A6B0023013243F100030027E5
:107B40009F4208BF914201D3891AF8E78D423CBF9A
:107B5000474F3F6BA5EB01063CBF0137F6194FEAD3
:107B6000920800274FEA930948EA8378B94508BF8D
:107B7000B04504D302F006FA0020BDE8F0873C4F80
:107B8000D7F8708041F61F730EF1090208EA03036B
:107B9000D7F86C80374F1602120646F0010608EA45
:107BA000070742F48032B3420CBF042300239742FC
:107BB0002F4FD7F86C8041F61F7208EA020204BF0B
:107BC00043F00203DBB2B24208BF43F001033E467A
:107BD00013F0010718BF284A4FEA0E1818BF1160AA
:107BE000264A42F80810103A42444FF0110EC2F8EB
:107BF00004E0B669AE42A6EB05023FBF1C4E366BF1
:107C0000013692194E1BA942194D38BF296BED6DF3
:107C10003CBF013176189642154923D81AEA050F60
:107C200020D12CB90123CCF80030C1F864A0A1E721
:107C3000C1F860A047B1124A124C41F61F7140F2E0
:107C400001151160256011609A0706D50C4A0D4C8C
:107C500008490D4D1160256011605B0742BF0B4B59
:107C600001229A6002F08EF90120BDE8F08700BF82
:107C70000050084000001F1F2C12002080500840B8
:107C80006C5008446C500846000001010040084058
:107C900074500844084BD3F8882012F0A00F0AD182
:107CA00008229A60054B1B6813F4007F14BF044A36
:107CB000044A02231360704700400840280F002147
:107CC00000400846004008449F4B2DE9F04F1A6ED3
:107CD000DE6E16409E6603F580538DB0D3F8E0202B
:107CE000D3F8EC1001EA020AC3F8E8A003F5A043B8
:107CF000D3F88020D3F88C1001EA0209C3F88890E9
:107D0000A3F500535A69196A01EA02084FEA1842BA
:107D10001204DA618D4AD1680291D16D976E0F40DD
:107D200027F4800121F400615166002E3ED0350415
:107D300012D5D3F888308649A02003F4E0520A60B7
:107D40000860102041F8880C42B1DC0409D45805C1
:107D50000AD44FF4000409E0002407E04FF40024A3
:107D600004E04FF0007401E04FF40014B1074FF04D
:107D7000000515D5774B7649D3F8883003F4604277
:107D80000A6012B944F480140AE01A0402D544F0DF
:107D9000806405E09B044CBF44F4800444F080748C
:107DA00016F4005F0CBF0026022601E00024002527
:107DB000694B0AEA0303002B54D01AF4206F07D052
:107DC000002002F059FA06202AF4802A01F0EAFE87
:107DD0001AF0090F09D05F4B20229A60A3F5405397
:107DE00001229A62082001F0DDFE1AF0106F18D00F
:107DF000584B20229A60A3F540530122C3F8B820C3
:107E00000093EFF3108B72B6002000F079FE584615
:107E100002F0B8F8009B0422C3F8B820092001F052
:107E2000C1FE1AF4202F07D0002002F025FA072007
:107E30002AF4802A01F0B6FE1AF4803F12D0474B94
:107E40004FF480321A60464BC3F8E420D3F8802008
:107E5000C2F30C023C2A05D8D3F8E030D80301D590
:107E600001F058FE1AF0040F0BD03E4B1A684FF485
:107E7000005322B13C4A44F48024136001E03B4AA1
:107E800013601AF4806F18BF44F004041AF48023BE
:107E900001937DD03649374A0B8812881A44033A39
:107EA000C2F38302009204339BB2334A00980B80E2
:107EB000324902EB800C4B629CF802B003921BF03B
:107EC00007031FD19CF8032012F0810F12D12C4B15
:107ED0000DF1100A59681868D646AEE80300294922
:107EE00008338B42F246F5D10CAB03EB920212F849
:107EF000203C00E00423039A009902EB810143EA4D
:107F00000B028A70042B03D1124A52681103FBD46E
:107F10001D4A013BC2F800C0062B05D8DFE803F07C
:107F2000080B080E11363600032001F03BFE2FE04F
:107F300044F400542CE044F4806429E044F40074D8
:107F400026E044F4807423E000000840005008401C
:107F50008840084400400840090A0B09EC10084416
:107F600000100840B40402432410084424100846BA
:107F70004C1200209A12002050120020601008407D
:107F8000D0C90000F0C900009C12002044F0080491
:107F9000B9F1000F1DD019F4805F18BF44F40044FC
:107FA00019F4807F18BF44F4803419F4005F18BFBF
:107FB00044F0100419F4007F18BF44F0200419F4B1
:107FC000806F18BF44F0400419F4006F18BF44F0EC
:107FD0008004B8F1000F30D018F0007F18BF46F0D1
:107FE000080618F0806F18BF46F0100618F0006FF2
:107FF00018BF46F0200618F4802F18BF45F004057E
:1080000018F4803F18BF44F4006418F4801F18BFB0
:1080100044F4804418F4001F18BF44F0020418F41C
:10802000002F0AD0AC4B5B68C3F303639A1E012A8E
:1080300001D9072B01D144F40034002F00F0108146
:108040003A050DD5A54BA64901221A60A54B4FF460
:10805000006241F61F705A6608605A6600221A676D
:10806000BB0104D52B20FFF701FD44F0804417F439
:10807000E00F07D1F80440F1E880029B13F0060FEF
:1080800000F0A880EFF3108972B617F4C00F4CD03F
:10809000954A9368C3F3891399058F494968906994
:1080A00048BF6FEA8353C2B248BF6FEA93530006DA
:1080B00048BF62F0FF028B4812F1460FC06D34DBFF
:1080C00013F5007F31D0B3EB820F2EDC01F070632B
:1080D000B3F1806F02D011F0506F26D1C00224D4CA
:1080E0002220FFF7C3FC7F4B4FF480225A60DA6DE9
:1080F000D1021AD4784A01219160DA6E7B49D9669F
:10810000DA664FF4E0025A66BA0207D55A6D12F0E9
:10811000706F1EBF5A6D02F17F425A6527F4C00787
:108120002C2047F48017FFF7A1FCB9F1000F00D114
:1081300062B6B80204D52920FFF798FC44F0005439
:10814000790216D56A4BDFF89C9101221A604FF430
:108150008053C9F864302720FFF788FC654BA022C4
:108160001A60102243F8882C4FF48003C9F8643059
:108170002DE0FA020CD55E4B01221A60594B4FF4E8
:1081800080525A662820FFF771FC44F000645CE0DE
:10819000FB045AD5564BDFF84C914FF0010AC3F857
:1081A00000A04FF48053C9F864302220FFF75EFC32
:1081B0004FF48023C9F80430D9F85C3013F4A00FD1
:1081C00043D12A20FFF752FC4B4BC3F828A044F0C0
:1081D00080543AE0464B01221A60424B4FF48051E2
:1081E00059663E490A604FF400625A663F4ADA66B1
:1081F000EFF3108A72B6414B1B780BB1FFF7C6F94B
:108200003D4B354A1B6D5268C2F30362032A02D00C
:10821000C3F30C0333B13A4B1A783A4B4FF00109D0
:108220001A7000E09946504601F0ACFEB9F1000F1B
:1082300007D1354B83F80090FFF78AF84FF480524E
:1082400000E00022002314431D437F0508D52F4B77
:1082500001221A60234B4FF480625A6646F00106F1
:108260002B4B2C4FD3E900012B4B1A6820400123E4
:10827000294032403B70FEF737FA00233B70019BE8
:10828000002B00F0A580254C2368002B00F09E8079
:10829000D80700F19980EFF3108572B62048214A83
:1082A000018801F03F0101F03C07022B174406D181
:1082B0002368002B00F0858023F0010302E0012BEE
:1082C00008BF3B46266826F00106B3422CD1134A6C
:1082D0000021116031E000BF00400840A450084474
:1082E0006C50084400500840007008400000010134
:1082F000B4500844884008440010084098120020F8
:10830000A0120020991200209012002094500844DE
:108310002819002024190020201900209C12002078
:108320009A12002050120020591A8A1A47490988C7
:1083300048BF403204398A4243DA1A886FEA42421F
:108340006FEA5242BB421A8034D14049B0F80090E3
:108350000F883A46043A92B2DFF810C109EB0706DB
:10836000B61A1FFA86FEACF1400A1E1D664528BFEC
:108370005646042A11D80A8099781B88344EC3F3D4
:108380000C03F36301F00701324B0EF07F06042962
:108390000680DE605A620DD106E0B6F900C0BCF17D
:1083A000000FE8DA3346D5E72B4B1B6803B198473B
:1083B000FFF7D4FA264BD3F8E030D90301D501F00A
:1083C000A9FB284601F0DEFD00232360FFF7BCF87F
:1083D000B8F1000F36D018F0007F21D01F4BD3F832
:1083E0003821D20655BFD3F80021D3F8182122F442
:1083F0007F1122F47F1155BFD3F80021D3F8182143
:1084000002F47E1202F47E1255BF41EA520241EAA2
:108410005202C3F80021C3F818214FF00072DA614C
:1084200018F0006F0ED00D4BD3F8383113F0100F49
:108430000CBF0B4A0B4A4FF4001313600A4B4FF06A
:1084400000621A600DB0BDE8F08F00BF4C12002032
:1084500000100840601008409412002000400840BE
:10846000004108441841084420400844901200206C
:1084700038B5094B04221A601C46084BD3F88830E3
:108480005B0307D5064B04251D600220FFF712FB96
:108490002560F2E738BD00BF88400846004008402C
:1084A000884008440A4A53685B0708D1094B5B6857
:1084B0002BB1094B1B6AC3F30C03013B9361074BC0
:1084C00080221A60064A136823F040031360704745
:1084D00000000840740F0021001008408840084642
:1084E000180F0021EFF3108072B6094B4FF00062B5
:1084F0001A6080221A6008221A6010221A604FF057
:1085000080521A6040221A6020221A6001F03ABD9F
:1085100000E100E0EFF3108072B6104B4FF0006204
:10852000C3F880208022C3F880200222C3F8802074
:108530000822C3F880201022C3F880204FF0805218
:10854000C3F880204022C3F880202022C3F8802076
:108550004FF08042C3F8802001F014BD00E100E03C
:1085600070B586B00E4615460446182268460021AE
:1085700002F0C8FF0134054B0093042069460194C2
:108580000296039501F050F806B070BDA4120020C9
:1085900037B50D461446FEF741FE38B10369828AAD
:1085A000C3B14FF6FE718A4214D101E0012014E0FC
:1085B00000200090ADF804006946984768B9009B18
:1085C0002B60BDF804302380286808B9208004E0BF
:1085D000002002E02B602280F6E703B030BD37B503
:1085E0000D461446FEF71AFE38B103693BB1818A85
:1085F0004FF6FE72914202D103E0012007E00E2007
:1086000005E00095ADF8044001206946984703B0A5
:1086100030BD0000214B1A78D00742BF204A4FF4EA
:10862000806111601A78910742BF1D4A4FF40061C2
:1086300011601A781B78520742BF1A4A4FF48061C2
:108640001160180742BF174B4FF400621A60164BB7
:108650004FF480621A60154B1A68910642BF144AA3
:108660004FF4807111601B681A0612D59B0610D555
:10867000104A136AC3F30803032B0CD95168D3685B
:108680000333C3F308030B4403F100531A780A4B76
:108690005A60002070470320704700BFCC160020AE
:1086A000A0000846A40008461C600844180F0021DA
:1086B00088400846001008401C0F002100234FF698
:1086C000FF7206491944C889904201D220B102467E
:1086D0001833F02BF5D11046704700BFD8CB0000FF
:1086E00037B58DE8060004469DE80300251D85E8A2
:1086F00005002373069B2361BDF81C30A382002371
:108700002360084B1A682AB1116809B10A46FBE7D1
:10871000146000E01C609888013080B2988003B03B
:1087200030BD00BF2817002037B500F14403009387
:108730000379114A04460333019306CA0223143015
:10874000FFF7CEFFE2680092228A237A019204F1B9
:108750002C0094E80600FFF7C3FF237AA4F8450035
:10876000054684F8443004F147002168227902F07C
:1087700069FE284603B030BD20CD000007B5026871
:108780000092064B02790192083093E8060002231A
:10879000FFF7A6FF03B05DF804FB00BF6CCB000041
:1087A00070B50D4C0D4B06460D4694E80300083499
:1087B00083E803001846FFF7E1FF94E80300084B45
:1087C00083E803000222DE601D821846BDE8704087
:1087D0001A72FFF7A9BF00BFF0C90000AC12002059
:1087E000D01600200A4B40F2011210B51A604FF06B
:1087F000FF329A6001225A600844814204D0044A40
:1088000011F8014B9461F8E7D869C04310BD00BF6F
:1088100000C00140C0F30323013B10B50446092BFF
:1088200036D8DFE803F02010083505131635191D7A
:108830000022184B19E0184801F060FC01F0FAFC26
:108840000022164B11E00022154B0EE00122154BC1
:108850000BE01022144B08E04FF48032134B04E07D
:108860000022134B01E0134B0022C4F3043442B145
:108870001049D1F84401C00703D4D1F840010242A5
:10888000FBD103F1047304EBC3039B0001221A60C4
:1088900010BD00BFB0400E4000050800B8400E40BB
:1088A000C0400E40E0400E40E8400E40F0400E4018
:1088B00050410E4000400E40F8B5042800F2A1805F
:1088C000DFE800F008030F299A00802540240623E2
:1088D000072224E04FF400754FF480740823092226
:1088E0001DE000297DD0474A536A13F0300F09D1AB
:1088F000536AD9070AD5536A23F0300343F01003B3
:10890000536203E00322022304240AE00322022329
:108910000424012506E00124022500232246002923
:1089200061D0002537490C663749194489000B6826
:10893000002BFCD0344F1744BF003B68002BFCD009
:1089400002285ED1002D5CD02E4B5A6A12F0010F26
:108950001A4618D04FF48062C3F8A82020225A6625
:108960005B6A13F0300F0CBF4FF440034FF4000369
:108970002449D1F890201A409A42F9D15B020DD5D2
:10898000D1F8A0300AE0536AD2F8903003F44003E3
:10899000B3F5400FF8D11B4BD3F8A030194E02208D
:1089A0000021D6F89C50FFF787FFD6F89030736A05
:1089B000164A23F0300343F010037362336B1A40FE
:1089C000C5F30A03C5F3C3151A43EB1C0F2B28BFCD
:1089D0000F2342EA0373336334663B68002BFCD0F9
:1089E000F8BD08250223074A1566074A1A44920073
:1089F0001368002BFCD1F8BD202510240423052288
:108A00008DE7F8BD00400E408004F21000F8FF0F23
:108A100070B540F62804E0B02368A3F50062B2F513
:108A2000605F05460E4605D21B6BA3F50062B2F5EA
:108A3000605F02D34FF401700DE05B6A002069466D
:108A40004FF4C072984730B923681B6B6846DB6AE5
:108A500029463246984760B070BD000040F62802B3
:108A60000B461268A2F50061B1F5605F30B50546AE
:108A70000DD2126BA2F50061B1F5605F07D21469E7
:108A8000044A2946A4460020BDE8304060474FF420
:108A9000817030BDCC12002040F6280300B51B6861
:108AA000A3F50062B2F5605FE1B010D21B6B73B149
:108AB0005B6A002069464FF4C0729847E8B940F6F7
:108AC00028031B68A3F50062B2F5605F02D34FF480
:108AD000017012E01B6BA3F50062B2F5605FF6D285
:108AE0009B6A68460021984740F201239842E6D0ED
:108AF00040F20323984208BF002061B05DF804FBF8
:108B0000042806D80138032806D8DFE800F002025E
:108B1000020200231B78FFDE704700000B4A5369F6
:108B200003F00F011369C3F3811343EA81038370D8
:108B3000136903F03F034370936903F0F001D369B5
:108B4000C3F303130B430370704700BFD0FF0FE064
:108B5000054A064B1B68136F23F007031843044BA9
:108B60001067188801F0A6B900300E408009C6438E
:108B7000A212002008B5244A2449254C03464FF48C
:108B8000006001F069FC234A937E43F04003937632
:108B9000214B00221A70214B1B780125EBB1FEF707
:108BA0007DF94FF0005340F20222A5601A804FF287
:108BB0000F025A80236823F4E06343F48063236048
:108BC000BFF34F8F1649174BCA6802F4E062134394
:108BD000CB60BFF34F8F00BFFDE74FF00052A560A1
:108BE0001360236823F4E06343F480632360BFF3DE
:108BF0004F8F0B490B4BCA6802F4E0621343CB6002
:108C0000BFF34F8F00BFFDE7C8CE0000B4C900001E
:108C100000500E4030170020FC1800208C17002058
:108C200000ED00E00400FA0510B5134CA37E5B06CE
:108C300021D400F01DFC2168A38C40F2E24202FB2B
:108C400003122260A17A94F84F2025200A4492FB57
:108C5000F0F100FB1122A2722289013222816268A6
:108C60000A2101FB03236360238B5A1E228313B95D
:108C70000820FFF77FFF10BD301700202DE9F047D7
:108C8000584C40F60100218901F0A0FBA37EC3F3FC
:108C900080122546002A40F0A28043F00103524989
:108CA00062F3410362F382030A68A37623891AB14F
:108CB0008988994200D19047A37A4C4E4C482B4466
:108CC00093F82A30637500F03FFC7368494A5B7A79
:108CD0002768656812F80390012000F0DDFBD6F8E4
:108CE0000080FDF7B1FA012804466AD108F10C00B2
:108CF000494600F08BFF002865D1B8F844306D0874
:108D0000781BC01AFEF7C0FE824607F164002844B3
:108D1000FEF7BAFE8046EFF3108972B6364DD5F8ED
:108D2000A42012F0010242D1344BEB663449354B9A
:108D30002A671A700B68344F23F040030B604FF41E
:108D400000633C606B66314BEB6603205146FEF7D7
:108D5000D3FE18B9484601F015F935E0D5F8A4302E
:108D6000DA0703D42A4B5B685B0420D5294B224CDD
:108D700001251D70FEF7DAFB274B1D604FF4805371
:108D80006366E36E23F0F85323F4F81343F0506363
:108D900043F48033E366042041460022FEF7ACFE34
:108DA00050B94FF400633D606366144BE366484678
:108DB00001F0E8F8032407E0484601F0E3F8002456
:108DC00002E0022400E0044630680C30FDF7F4F9BC
:108DD00014B1FFF729FF53E7044B104A1A61BDE8AD
:108DE000F08700BF3017002090170020E418002003
:108DF0003C170020D7CE00000050084000000101C1
:108E0000180F0021A0120020A4500844010C0100FA
:108E10000040084098120020B4500844758E0000AD
:108E2000044B5A6D22B95865A3F8581001207047B9
:108E30000020704730170020D0B50C4CE38C0A207E
:108E4000584301F089FD0646A08C0F4601F084FDD1
:108E50000022074B01F0E6FD02460B46304639463C
:108E600001F00AFF01F0F0FF2083D0BD3017002091
:108E70000000F43F2DE9F047022886B00D460BD0E4
:108E800003D8012800F0FF8108E2032800F00182E6
:108E9000FF2800F0FE8101E2BC4ECC68B37ED8070B
:108EA00008D56FF30003B376002373600B6833605B
:108EB000FFF7C2FFAB79B64F13F0010F40F6030086
:108EC00004D14FF0FF3101F081FA9EE12188DFF8F3
:108ED000BC8201F07BFA2378B27EC3F3001363F304
:108EE00082022378B276C3F3C001C2F3001291422A
:108EF00040F0228103F00303022B00F0FB80032BE0
:108F000005D0012B40F018814FF00009F4E04FF438
:108F10008050A049A04AA37801F09EFAA578022DBE
:108F20006ED01ED8002D4ED0012D40F0A8804FF4F9
:108F300080509A499A4A238901F08EFA627A237AFC
:108F4000984943EA02238B800B46974A43F8062B45
:108F5000224652F8030FC1F8060091889980927951
:108F60005DE00C2D24D0142D5BD0082D40F08780BF
:108F700025464FF4805055F8032F8C496B688DE8D7
:108F80000C008B4A01F068FA2A688A4B02F0FF0253
:108F9000988A42F47F420240874800210546002318
:108FA0000B40092105F8011BC0F801206B607BE133
:108FB000814800230570012545708570C3700571D7
:108FC0004371062170E14FF4805074497B4AA389B4
:108FD00001F042FA627B237B724843EA02238380DA
:108FE0000346774A43F8062B224652F8031FC0F87F
:108FF00006105168596011891981927A9A7255E167
:10900000704AE37870494FF4805001F025FAB8F8BF
:109010000820644B05329A806C4A1A60E2789A7193
:1090200044E1B4F80520B4F803300092B4F8072006
:109030000192B4F8092002924FF480506449654AC5
:1090400001F00AFAB4F805305B48DA08B4F80330E6
:10905000934228BF1346A8F82830152300216FF04B
:1090600004056FF02702037007238170817145703A
:10907000C27003714571C2710372092114E1564B2C
:109080001B78002B00F00B81162D1BD0182D40F003
:1090900006812279E3780092B4F8052001924F49C5
:1090A0004F4A4FF4805001F0D7F96279A1793D4BD6
:1090B00042EA01229A804B4A1A60D4F80320C3F88E
:1090C0000620F3E02279E378474900924FF480507C
:1090D000464A01F0C1F9E27823793748134003F09A
:1090E0000303022B18BF0123172202704370837001
:1090F0000321D9E04FF0010994F80180B8F1000F85
:1091000000F0D4803A48858A01F0B0F9281A04F1B9
:10911000020A80B2B9F1000F04D0022886BF0238DB
:1091200080B200201FFA88F3984205D34946524680
:109130002F4801F0E1F9B9E00023B27E2078C2F3B4
:10914000C001C0F38000884256D081F0010161F374
:10915000C302D2B20D4942F020028A76002B4CD1D4
:10916000B37E716D094C6FF34513B376002950D06F
:109170003B7894F858207A7043F003033B701D4805
:1091800002F060F9002363655AE000BF3017002049
:10919000E017002008CF0000FFCE000019CF00002C
:1091A000EECF000090170020F59300003BCF0000A9
:1091B000BDCE0000E4180020A417002088CE0000D7
:1091C000999300009CCE000029CF000085930000F9
:1091D00054CF0000E4CF0000E0180020B6CF00001C
:1091E000B0CE00005593000096CF0000A9CE00003D
:1091F000B0170020E21700203BB1B37EC3F300128A
:1092000082F0010262F30413B376B37E990617D598
:10921000A6E72948294A94F828300DF1170101F0F2
:10922000D5F9C0B230B19DF81730002B0CBF012228
:10923000022200E001223B78787062F301033B7068
:109240001D4801F013F9B37E003018BF012060F310
:109250004103B376DAB23B78C2F3001161F38203C3
:10926000C2F3C00262F3C30360F304133B70398896
:1092700040F6020001F0AAF8797811480231C9B22B
:1092800000F03EF914E00F4B9B7E5A0710D49B0769
:109290000ED4FFF7C9FCFFF7F1FC09E0FEE70A482E
:1092A0000723037045700221FFF7BAFD012344E74D
:1092B00006B0BDE8F08700BFC8170020E217002005
:1092C000E017002030170020A4170020084A10B52E
:1092D000146840F2E243584303FB0141536800F530
:1092E000807001EB500118441160506010BD00BF48
:1092F0003017002030B500228BB01346D91003F090
:109300000704415C2141CC0741BF0AA989180132F9
:1093100001F8283C0133252BF0D10D4C0023D91046
:1093200003F00705415C2941C9075FBF0AAD93FB04
:10933000F2F102FB113149194EBF237011F8281CBC
:1093400021700133252B04F10104E8D10BB030BDAD
:109350005A17002038B5074C0749A579074A2B460C
:109360004FF4805001F078F8054B1D750023236001
:1093700038BD00BF901700201FD000000CD00000A7
:109380003017002010B5034CA079FFF7F3FB002342
:10939000236010BD901700201FB5124C1249A2790E
:1093A0000092B4F809200192B4F80D20B4F8073007
:1093B00002924FF480500D4A01F04EF8A079B4F8B3
:1093C0000710FFF783FFA368094AB4F80D10D18492
:1093D000C3F30F239384FFF72FFD0023236004B012
:1093E00010BD00BF901700202FD00000A9D00000B2
:1093F000301700201FB50B4C0B49E2790092227AFE
:109400000192627A0292A27AA37903924FF4805079
:10941000064A01F021F8A01DFFF76CFF002323602E
:1094200004B010BD9017002066D000008FD000005F
:109430002DE9F04180460D461446A4B1EFF31087A4
:1094400072B60A4841462A46234601F055F80646B8
:10945000384600F097FD002EEFD0A41BA4B235448F
:109460004FF00008E9E7BDE8F08100BFC817002011
:1094700008B54FF48570002100F0A8FF054B0022CD
:1094800003201A61FCF71EFFFCF7DEFE0128FBD16A
:1094900008BD00BFE4180020012838B516BF01241C
:1094A00002252546284608BF042400F089FB78B130
:1094B000012000F085FB58B1FCF7C6FE42075FBFF4
:1094C0000E4B188840F0807040EA054058BF186085
:1094D000204600F075FB78B1012000F071FB58B117
:1094E000FCF7B2FE83075FBF044B5A8844EA02448C
:1094F00044F4807458BF1C6038BD00BF280F0021A1
:1095000038B5B1F5007F0F4B28BF4FF4007103222F
:109510001A600D465860EFF3108072B6D3F8E02061
:109520001C4612F0040F4FF00001D9609D6004BF8B
:109530000423C4F8E83000F025FD0DB10223A36236
:1095400038BD00BF00100840F8B5304C43682568AE
:1095500060602A7B0668417AD2072CD593FAA3F380
:109560002B4A1B0A13610123936002F5804216F017
:10957000010F1664D36B14BF5527AA2723F00F03DE
:10958000552F0CBF43F0010343F00203D363214A7C
:109590004423D36241F0400313631F4B07221A6038
:1095A00003F1007301221A601C4A4FF480431360D8
:1095B00053609360D360A38AD90526D5184A037AED
:1095C00011789942164620D0012B02D0022B14D0DC
:1095D00018E02B7BDA0715D5FCF736FE012811D1F0
:1095E000104BEB6200232B63FFF768F805F10C07C3
:1095F0000146384600F00AFB04E02B7BDB0701D56F
:10960000FCF722FE63681B7A3370F8BDE418002073
:10961000002008400000084034000844A00008442E
:10962000FD18002028CD000013B5002301F1080427
:10963000ADF80430ADF806002246083252F8101C8E
:1096400021B152F80C1C0B449BB2F6E702A9012091
:1096500021F8043D04220834FFF7EAFE54F8101CF8
:1096600019B1002034F80C2CF5E702B010BD000051
:109670002DE9F84F424BDFF818A193F80090074608
:109680000D4616469846B9F1000F3ED13D4A3E4C74
:10969000936C3E489BB29B02A3F580532360936C6E
:1096A0009BB29B02A3F500636360FFF7B3F82168E8
:1096B00008200431FFF796F823681B68984208BF1A
:1096C0002368616808BFD3F804904FF0080001F1E7
:1096D00004010CBF4FF0010BCB46FFF783F8636822
:1096E0001B68984208D1284B5B685B68994501D29A
:1096F000012305E0002303E0BBF1000FFAD1FF23B3
:109700008AF80030012388F800309AF900305A1C9A
:1097100004D1002030702860BDE8F88F1A4A52F852
:10972000233003F10C084446C4F30A030833B3F5AD
:10973000006FEED2A2884FF6FF739A42E9D0A0796B
:10974000211D0430FFF74EF82368984209D1A38801
:10975000BB4206D1E388337008342C600120BDE899
:10976000F88FA379033323F0030308331C4484EAFE
:10977000080323F4FF6323F00703002BD4D0C8E7CA
:1097800008190020B081E00F0019002000550800E2
:10979000380000207FB50E4B02466D4603F11006DF
:1097A000186859682C4603C40833B3422546F7D1DC
:1097B000531E04A90F3211F8014D13F8010F844212
:1097C00003D19342F7D1012000E0002004B070BD26
:1097D000FCCF000070B5264A1378032B46D0254CE9
:1097E00023685A2823F47F51C3F3873321F00801FB
:1097F0004FEA83130BD95588B5F5E16F09D8C8280E
:1098000043F6C8768ABF01250025334604E00025CB
:1098100002E0012543F6C8730B431E2823604FF076
:10982000010303D8144A136093611CE013495028C4
:109830000B608B6117D95388B3F5E16F01D8782895
:1098400011D90F4A4DF601731360002D936102F197
:10985000007214BF4FF457434FF4504313609361A9
:109860000822084B01E0084B08221A6070BD00BFB7
:1098700030120020E00F002108410844084108464A
:1098800004410844944008469440084408B5FEF753
:1098900055F801380F4B082816D8DFE800F00515F9
:1098A0000E0E1010131313000B4A1278012A4FF0FA
:1098B000440205D00021996009E0002200E0332233
:1098C0009A6004E0002200E0F7229A60A2225A6027
:1098D00008BD00BFE00F002130120020F8B5354B65
:1098E000354A002808BF01201860344B9B69C3F338
:1098F00082131370023BDBB2042B05D8012202FA5B
:1099000003F313F0130F08D12D4B1B78022B06D055
:10991000012B0CBF3222B42202E0002200E096228A
:10992000002302FA03F442F2107564116C43254DD2
:10993000B4FBF5F4844202D80133102BF1D11F4857
:109940001204C266204A40F6FF741460013B02F123
:1099500000721B021360C26EC36EC56ED0F868E061
:10996000866E876E164CC6F303100EF00F0EC3F30F
:109970000723D2B202FA0EF28340C7F30327C5F3DE
:10998000074542F21070BD405B1152110D4E43432A
:109990004243B3FBF6F3B2FBF6F26D111344684396
:1099A000B0FBF6F0034408460121A380FDF720FE3A
:1099B000A088F8BD18190020390000200060084078
:1099C0003012002000DC050068600844F8B5044649
:1099D000C820FFF7FFFE444B444E1F78032F02D1EF
:1099E000FF2434707DE0012F414A11D1072C03D8A8
:1099F000012C08BF022400E0072411683D4B0B40F6
:109A000043EA046313603C4B04221A60A4B263E08F
:109A1000116821F0F95121F4FE1141F47F5141F018
:109A2000080111602FB9042C05D9043CE4B20125CA
:109A300002E0002500E03D46304BD3F88821D243B8
:109A400002F4FE1242F40052B2FA82F2C2F11302A0
:109A5000C2EB4212D3B29C4228BF1C46E3B29CB276
:109A600027B9002D0CBF0022042200E0002214447C
:109A7000234A1BB92348C2F8580105E04FF0E060C3
:109A8000013BC2F85801DBB21F22B3FBF2F2C2EB7A
:109A900042101B1A1B0603F18073D2B21943013224
:109AA00001239340013B124A41EA83331360144A75
:109AB000D2F8583134B123F07F4323F0040343F04C
:109AC0007F4300E0104BC2F858314FF480030DB1D2
:109AD0000E4A00E00E4A1360E4B220463470FFF7ED
